{
  "contractName": "MultiSigBearWallet",
  "abi": [
    {
      "inputs": [
        {
          "internalType": "address[]",
          "name": "_owners",
          "type": "address[]"
        },
        {
          "internalType": "uint256",
          "name": "_confirmationsRequired",
          "type": "uint256"
        }
      ],
      "stateMutability": "nonpayable",
      "type": "constructor"
    },
    {
      "anonymous": false,
      "inputs": [
        {
          "indexed": true,
          "internalType": "address",
          "name": "owner",
          "type": "address"
        },
        {
          "indexed": true,
          "internalType": "uint256",
          "name": "txIndex",
          "type": "uint256"
        }
      ],
      "name": "ConfirmTransaction",
      "type": "event"
    },
    {
      "anonymous": false,
      "inputs": [
        {
          "indexed": true,
          "internalType": "address",
          "name": "sender",
          "type": "address"
        },
        {
          "indexed": false,
          "internalType": "uint256",
          "name": "amount",
          "type": "uint256"
        },
        {
          "indexed": false,
          "internalType": "uint256",
          "name": "balance",
          "type": "uint256"
        }
      ],
      "name": "Deposit",
      "type": "event"
    },
    {
      "anonymous": false,
      "inputs": [
        {
          "indexed": true,
          "internalType": "address",
          "name": "owner",
          "type": "address"
        },
        {
          "indexed": true,
          "internalType": "uint256",
          "name": "txIndex",
          "type": "uint256"
        }
      ],
      "name": "ExecuteTransaction",
      "type": "event"
    },
    {
      "anonymous": false,
      "inputs": [
        {
          "indexed": true,
          "internalType": "address",
          "name": "sender",
          "type": "address"
        },
        {
          "indexed": true,
          "internalType": "address",
          "name": "newOwner",
          "type": "address"
        }
      ],
      "name": "OwnerAddition",
      "type": "event"
    },
    {
      "anonymous": false,
      "inputs": [
        {
          "indexed": true,
          "internalType": "address",
          "name": "sender",
          "type": "address"
        },
        {
          "indexed": true,
          "internalType": "address",
          "name": "approvedOwner",
          "type": "address"
        }
      ],
      "name": "OwnerApproval",
      "type": "event"
    },
    {
      "anonymous": false,
      "inputs": [
        {
          "indexed": true,
          "internalType": "address",
          "name": "sender",
          "type": "address"
        },
        {
          "indexed": true,
          "internalType": "address",
          "name": "disactivatedOwner",
          "type": "address"
        }
      ],
      "name": "OwnerDisactivation",
      "type": "event"
    },
    {
      "anonymous": false,
      "inputs": [
        {
          "indexed": true,
          "internalType": "address",
          "name": "owner",
          "type": "address"
        },
        {
          "indexed": true,
          "internalType": "uint256",
          "name": "txIndex",
          "type": "uint256"
        }
      ],
      "name": "RevokeConfirmation",
      "type": "event"
    },
    {
      "anonymous": false,
      "inputs": [
        {
          "indexed": true,
          "internalType": "address",
          "name": "owner",
          "type": "address"
        },
        {
          "indexed": true,
          "internalType": "uint256",
          "name": "txIndex",
          "type": "uint256"
        },
        {
          "indexed": true,
          "internalType": "address",
          "name": "to",
          "type": "address"
        },
        {
          "indexed": false,
          "internalType": "uint256",
          "name": "value",
          "type": "uint256"
        },
        {
          "indexed": false,
          "internalType": "bytes",
          "name": "data",
          "type": "bytes"
        }
      ],
      "name": "SubmitTransaction",
      "type": "event"
    },
    {
      "inputs": [],
      "name": "confirmationsRequired",
      "outputs": [
        {
          "internalType": "uint256",
          "name": "",
          "type": "uint256"
        }
      ],
      "stateMutability": "view",
      "type": "function",
      "constant": true
    },
    {
      "inputs": [
        {
          "internalType": "uint256",
          "name": "",
          "type": "uint256"
        },
        {
          "internalType": "address",
          "name": "",
          "type": "address"
        }
      ],
      "name": "isConfirmed",
      "outputs": [
        {
          "internalType": "bool",
          "name": "",
          "type": "bool"
        }
      ],
      "stateMutability": "view",
      "type": "function",
      "constant": true
    },
    {
      "inputs": [
        {
          "internalType": "address",
          "name": "",
          "type": "address"
        }
      ],
      "name": "isOwner",
      "outputs": [
        {
          "internalType": "bool",
          "name": "",
          "type": "bool"
        }
      ],
      "stateMutability": "view",
      "type": "function",
      "constant": true
    },
    {
      "inputs": [
        {
          "internalType": "uint256",
          "name": "",
          "type": "uint256"
        }
      ],
      "name": "owners",
      "outputs": [
        {
          "internalType": "address",
          "name": "",
          "type": "address"
        }
      ],
      "stateMutability": "view",
      "type": "function",
      "constant": true
    },
    {
      "inputs": [
        {
          "internalType": "uint256",
          "name": "",
          "type": "uint256"
        }
      ],
      "name": "transactions",
      "outputs": [
        {
          "internalType": "address",
          "name": "to",
          "type": "address"
        },
        {
          "internalType": "uint256",
          "name": "value",
          "type": "uint256"
        },
        {
          "internalType": "bytes",
          "name": "data",
          "type": "bytes"
        },
        {
          "internalType": "bool",
          "name": "executed",
          "type": "bool"
        },
        {
          "internalType": "uint256",
          "name": "confirmations",
          "type": "uint256"
        }
      ],
      "stateMutability": "view",
      "type": "function",
      "constant": true
    },
    {
      "inputs": [
        {
          "internalType": "uint256",
          "name": "",
          "type": "uint256"
        }
      ],
      "name": "usedNonces",
      "outputs": [
        {
          "internalType": "bool",
          "name": "",
          "type": "bool"
        }
      ],
      "stateMutability": "view",
      "type": "function",
      "constant": true
    },
    {
      "stateMutability": "payable",
      "type": "receive",
      "payable": true
    },
    {
      "inputs": [
        {
          "internalType": "address",
          "name": "_to",
          "type": "address"
        },
        {
          "internalType": "uint256",
          "name": "_value",
          "type": "uint256"
        },
        {
          "internalType": "bytes",
          "name": "_data",
          "type": "bytes"
        }
      ],
      "name": "submitTransaction",
      "outputs": [],
      "stateMutability": "nonpayable",
      "type": "function"
    },
    {
      "inputs": [
        {
          "internalType": "uint256",
          "name": "_txIndex",
          "type": "uint256"
        }
      ],
      "name": "confirmTransaction",
      "outputs": [],
      "stateMutability": "nonpayable",
      "type": "function"
    },
    {
      "inputs": [
        {
          "internalType": "uint256",
          "name": "_txIndex",
          "type": "uint256"
        }
      ],
      "name": "revokeConfirmation",
      "outputs": [],
      "stateMutability": "nonpayable",
      "type": "function"
    },
    {
      "inputs": [
        {
          "internalType": "uint256",
          "name": "_txIndex",
          "type": "uint256"
        }
      ],
      "name": "executeTransaction",
      "outputs": [],
      "stateMutability": "nonpayable",
      "type": "function"
    },
    {
      "inputs": [
        {
          "internalType": "address",
          "name": "_owner",
          "type": "address"
        }
      ],
      "name": "addOwner",
      "outputs": [],
      "stateMutability": "nonpayable",
      "type": "function"
    },
    {
      "inputs": [
        {
          "internalType": "address",
          "name": "_owner",
          "type": "address"
        },
        {
          "internalType": "uint256[]",
          "name": "nonces",
          "type": "uint256[]"
        },
        {
          "internalType": "bytes[]",
          "name": "signatures",
          "type": "bytes[]"
        }
      ],
      "name": "approveOwner",
      "outputs": [],
      "stateMutability": "nonpayable",
      "type": "function"
    },
    {
      "inputs": [
        {
          "internalType": "address",
          "name": "_owner",
          "type": "address"
        },
        {
          "internalType": "uint256[]",
          "name": "nonces",
          "type": "uint256[]"
        },
        {
          "internalType": "bytes[]",
          "name": "signatures",
          "type": "bytes[]"
        }
      ],
      "name": "disactivateOwner",
      "outputs": [],
      "stateMutability": "nonpayable",
      "type": "function"
    },
    {
      "inputs": [
        {
          "internalType": "bytes32",
          "name": "_message",
          "type": "bytes32"
        }
      ],
      "name": "getEthSignedHash",
      "outputs": [
        {
          "internalType": "bytes32",
          "name": "",
          "type": "bytes32"
        }
      ],
      "stateMutability": "pure",
      "type": "function",
      "constant": true
    },
    {
      "inputs": [
        {
          "internalType": "bytes",
          "name": "signature",
          "type": "bytes"
        }
      ],
      "name": "splitSignature",
      "outputs": [
        {
          "internalType": "bytes32",
          "name": "r",
          "type": "bytes32"
        },
        {
          "internalType": "bytes32",
          "name": "s",
          "type": "bytes32"
        },
        {
          "internalType": "uint8",
          "name": "v",
          "type": "uint8"
        }
      ],
      "stateMutability": "pure",
      "type": "function",
      "constant": true
    },
    {
      "inputs": [
        {
          "internalType": "bytes32",
          "name": "_ethSignedMessage",
          "type": "bytes32"
        },
        {
          "internalType": "bytes",
          "name": "_signanture",
          "type": "bytes"
        }
      ],
      "name": "verify",
      "outputs": [
        {
          "internalType": "address",
          "name": "",
          "type": "address"
        }
      ],
      "stateMutability": "pure",
      "type": "function",
      "constant": true
    },
    {
      "inputs": [],
      "name": "getOwners",
      "outputs": [
        {
          "internalType": "address[]",
          "name": "",
          "type": "address[]"
        }
      ],
      "stateMutability": "view",
      "type": "function",
      "constant": true
    },
    {
      "inputs": [],
      "name": "getTransactionCount",
      "outputs": [
        {
          "internalType": "uint256",
          "name": "",
          "type": "uint256"
        }
      ],
      "stateMutability": "view",
      "type": "function",
      "constant": true
    },
    {
      "inputs": [
        {
          "internalType": "uint256",
          "name": "_txIndex",
          "type": "uint256"
        }
      ],
      "name": "getTransaction",
      "outputs": [
        {
          "internalType": "address",
          "name": "to",
          "type": "address"
        },
        {
          "internalType": "uint256",
          "name": "value",
          "type": "uint256"
        },
        {
          "internalType": "bytes",
          "name": "data",
          "type": "bytes"
        },
        {
          "internalType": "bool",
          "name": "executed",
          "type": "bool"
        },
        {
          "internalType": "uint256",
          "name": "confimations",
          "type": "uint256"
        }
      ],
      "stateMutability": "view",
      "type": "function",
      "constant": true
    }
  ],
  "bytecode": "0x60806040523480156200001157600080fd5b5060405162003c6338038062003c6383398181016040528101906200003791906200050f565b60008251116200007e576040517f08c379a00000000000000000000000000000000000000000000000000000000081526004016200007590620005d6565b60405180910390fd5b60008111801562000090575081518111155b620000d2576040517f08c379a0000000000000000000000000000000000000000000000000000000008152600401620000c99062000648565b60405180910390fd5b60005b8251811015620002d6576000838281518110620000f757620000f66200066a565b5b60200260200101519050600073ffffffffffffffffffffffffffffffffffffffff168173ffffffffffffffffffffffffffffffffffffffff16141562000174576040517f08c379a00000000000000000000000000000000000000000000000000000000081526004016200016b90620006e9565b60405180910390fd5b600360008273ffffffffffffffffffffffffffffffffffffffff1673ffffffffffffffffffffffffffffffffffffffff16815260200190815260200160002060009054906101000a900460ff161562000204576040517f08c379a0000000000000000000000000000000000000000000000000000000008152600401620001fb906200075b565b60405180910390fd5b6001600360008373ffffffffffffffffffffffffffffffffffffffff1673ffffffffffffffffffffffffffffffffffffffff16815260200190815260200160002060006101000a81548160ff0219169083151502179055506000819080600181540180825580915050600190039060005260206000200160009091909190916101000a81548173ffffffffffffffffffffffffffffffffffffffff021916908373ffffffffffffffffffffffffffffffffffffffff160217905550508080620002cd90620007ac565b915050620000d5565b50806005819055505050620007fa565b6000604051905090565b600080fd5b600080fd5b600080fd5b6000601f19601f8301169050919050565b7f4e487b7100000000000000000000000000000000000000000000000000000000600052604160045260246000fd5b6200034a82620002ff565b810181811067ffffffffffffffff821117156200036c576200036b62000310565b5b80604052505050565b600062000381620002e6565b90506200038f82826200033f565b919050565b600067ffffffffffffffff821115620003b257620003b162000310565b5b602082029050602081019050919050565b600080fd5b600073ffffffffffffffffffffffffffffffffffffffff82169050919050565b6000620003f582620003c8565b9050919050565b6200040781620003e8565b81146200041357600080fd5b50565b6000815190506200042781620003fc565b92915050565b6000620004446200043e8462000394565b62000375565b905080838252602082019050602084028301858111156200046a5762000469620003c3565b5b835b8181101562000497578062000482888262000416565b8452602084019350506020810190506200046c565b5050509392505050565b600082601f830112620004b957620004b8620002fa565b5b8151620004cb8482602086016200042d565b91505092915050565b6000819050919050565b620004e981620004d4565b8114620004f557600080fd5b50565b6000815190506200050981620004de565b92915050565b60008060408385031215620005295762000528620002f0565b5b600083015167ffffffffffffffff8111156200054a5762000549620002f5565b5b6200055885828601620004a1565b92505060206200056b85828601620004f8565b9150509250929050565b600082825260208201905092915050565b7f4e554c4c5f4f574e4552535f50524f5649444544000000000000000000000000600082015250565b6000620005be60148362000575565b9150620005cb8262000586565b602082019050919050565b60006020820190508181036000830152620005f181620005af565b9050919050565b7f494e56414c49445f434f4e4649524d4154494f4e535f4e554d42455200000000600082015250565b600062000630601c8362000575565b91506200063d82620005f8565b602082019050919050565b60006020820190508181036000830152620006638162000621565b9050919050565b7f4e487b7100000000000000000000000000000000000000000000000000000000600052603260045260246000fd5b7f494e56414c49445f4f574e45525f50524f564944454400000000000000000000600082015250565b6000620006d160168362000575565b9150620006de8262000699565b602082019050919050565b600060208201905081810360008301526200070481620006c2565b9050919050565b7f4e4f545f554e495155455f4f574e45525f50524f564944454400000000000000600082015250565b60006200074360198362000575565b915062000750826200070b565b602082019050919050565b60006020820190508181036000830152620007768162000734565b9050919050565b7f4e487b7100000000000000000000000000000000000000000000000000000000600052601160045260246000fd5b6000620007b982620004d4565b91507fffffffffffffffffffffffffffffffffffffffffffffffffffffffffffffffff821415620007ef57620007ee6200077d565b5b600182019050919050565b613459806200080a6000396000f3fe6080604052600436106101185760003560e01c806380f59a65116100a0578063c642747411610064578063c642747414610474578063e3ba65291461049d578063e8b2c243146104c6578063e8c571d8146104f1578063ee22610b1461051a5761016f565b806380f59a65146103635780639ace38c2146103a0578063a0e67e2b146103e1578063a7bb58031461040c578063c01a8c841461044b5761016f565b80632f4ea5ea116100e75780632f4ea5ea146102425780632f54bf6e1461027f57806333ea3dc8146102bc5780636717e41c146102fd5780637065cb481461033a5761016f565b8063025e7c271461017457806320ea8d86146101b1578063258ae582146101da5780632e7700f0146102175761016f565b3661016f573373ffffffffffffffffffffffffffffffffffffffff167f90890809c654f11d6e72a28fa60149770a0d11ec6c92319d6ceb2bb0a4ea1a1534476040516101659291906120bc565b60405180910390a2005b600080fd5b34801561018057600080fd5b5061019b60048036038101906101969190612125565b610543565b6040516101a89190612193565b60405180910390f35b3480156101bd57600080fd5b506101d860048036038101906101d39190612125565b610582565b005b3480156101e657600080fd5b5061020160048036038101906101fc919061232a565b61085c565b60405161020e9190612193565b60405180910390f35b34801561022357600080fd5b5061022c6108cb565b6040516102399190612386565b60405180910390f35b34801561024e57600080fd5b50610269600480360381019061026491906123a1565b6108d8565b60405161027691906123dd565b60405180910390f35b34801561028b57600080fd5b506102a660048036038101906102a19190612424565b610908565b6040516102b3919061246c565b60405180910390f35b3480156102c857600080fd5b506102e360048036038101906102de9190612125565b610928565b6040516102f495949392919061250f565b60405180910390f35b34801561030957600080fd5b50610324600480360381019061031f9190612125565b610a3b565b604051610331919061246c565b60405180910390f35b34801561034657600080fd5b50610361600480360381019061035c9190612424565b610a5b565b005b34801561036f57600080fd5b5061038a60048036038101906103859190612569565b610c8e565b604051610397919061246c565b60405180910390f35b3480156103ac57600080fd5b506103c760048036038101906103c29190612125565b610cbd565b6040516103d895949392919061250f565b60405180910390f35b3480156103ed57600080fd5b506103f6610db8565b6040516104039190612667565b60405180910390f35b34801561041857600080fd5b50610433600480360381019061042e9190612689565b610e46565b604051610442939291906126ee565b60405180910390f35b34801561045757600080fd5b50610472600480360381019061046d9190612125565b610eae565b005b34801561048057600080fd5b5061049b60048036038101906104969190612725565b61118b565b005b3480156104a957600080fd5b506104c460048036038101906104bf919061293d565b611395565b005b3480156104d257600080fd5b506104db6117a6565b6040516104e89190612386565b60405180910390f35b3480156104fd57600080fd5b506105186004803603810190610513919061293d565b6117ac565b005b34801561052657600080fd5b50610541600480360381019061053c9190612125565b611c4c565b005b6000818154811061055357600080fd5b906000526020600020016000915054906101000a900473ffffffffffffffffffffffffffffffffffffffff1681565b600360003373ffffffffffffffffffffffffffffffffffffffff1673ffffffffffffffffffffffffffffffffffffffff16815260200190815260200160002060009054906101000a900460ff1661060e576040517f08c379a000000000000000000000000000000000000000000000000000000000815260040161060590612a25565b60405180910390fd5b806001805490508110610656576040517f08c379a000000000000000000000000000000000000000000000000000000000815260040161064d90612a91565b60405180910390fd5b816001818154811061066b5761066a612ab1565b5b906000526020600020906005020160030160009054906101000a900460ff16156106ca576040517f08c379a00000000000000000000000000000000000000000000000000000000081526004016106c190612b2c565b60405180910390fd5b6000600184815481106106e0576106df612ab1565b5b906000526020600020906005020190506004600085815260200190815260200160002060003373ffffffffffffffffffffffffffffffffffffffff1673ffffffffffffffffffffffffffffffffffffffff16815260200190815260200160002060009054906101000a900460ff1661078d576040517f08c379a000000000000000000000000000000000000000000000000000000000815260040161078490612b98565b60405180910390fd5b60018160040160008282546107a29190612be7565b9250508190555060006004600086815260200190815260200160002060003373ffffffffffffffffffffffffffffffffffffffff1673ffffffffffffffffffffffffffffffffffffffff16815260200190815260200160002060006101000a81548160ff021916908315150217905550833373ffffffffffffffffffffffffffffffffffffffff167ff0dca620e2e81f7841d07bcc105e1704fb01475b278a9d4c236e1c62945edd5560405160405180910390a350505050565b60008060008061086b85610e46565b925092509250600186828585604051600081526020016040526040516108949493929190612c1b565b6020604051602081039080840390855afa1580156108b6573d6000803e3d6000fd5b50505060206040510351935050505092915050565b6000600180549050905090565b6000816040516020016108eb9190612cd8565b604051602081830303815290604052805190602001209050919050565b60036020528060005260406000206000915054906101000a900460ff1681565b600080606060008060006001878154811061094657610945612ab1565b5b906000526020600020906005020190508060000160009054906101000a900473ffffffffffffffffffffffffffffffffffffffff168160010154826002018360030160009054906101000a900460ff1684600401548280546109a790612d2d565b80601f01602080910402602001604051908101604052809291908181526020018280546109d390612d2d565b8015610a205780601f106109f557610100808354040283529160200191610a20565b820191906000526020600020905b815481529060010190602001808311610a0357829003601f168201915b50505050509250955095509550955095505091939590929450565b60026020528060005260406000206000915054906101000a900460ff1681565b600360003373ffffffffffffffffffffffffffffffffffffffff1673ffffffffffffffffffffffffffffffffffffffff16815260200190815260200160002060009054906101000a900460ff16610ae7576040517f08c379a0000000000000000000000000000000000000000000000000000000008152600401610ade90612a25565b60405180910390fd5b80600360008273ffffffffffffffffffffffffffffffffffffffff1673ffffffffffffffffffffffffffffffffffffffff16815260200190815260200160002060009054906101000a900460ff1615610b75576040517f08c379a0000000000000000000000000000000000000000000000000000000008152600401610b6c90612dab565b60405180910390fd5b6000829080600181540180825580915050600190039060005260206000200160009091909190916101000a81548173ffffffffffffffffffffffffffffffffffffffff021916908373ffffffffffffffffffffffffffffffffffffffff1602179055506000600360008473ffffffffffffffffffffffffffffffffffffffff1673ffffffffffffffffffffffffffffffffffffffff16815260200190815260200160002060006101000a81548160ff0219169083151502179055508173ffffffffffffffffffffffffffffffffffffffff163373ffffffffffffffffffffffffffffffffffffffff167f1c9cda327f9c5e340bd9c973d4bf53305463d512627c12a685081a57f7828f7a60405160405180910390a35050565b60046020528160005260406000206020528060005260406000206000915091509054906101000a900460ff1681565b60018181548110610ccd57600080fd5b90600052602060002090600502016000915090508060000160009054906101000a900473ffffffffffffffffffffffffffffffffffffffff1690806001015490806002018054610d1c90612d2d565b80601f0160208091040260200160405190810160405280929190818152602001828054610d4890612d2d565b8015610d955780601f10610d6a57610100808354040283529160200191610d95565b820191906000526020600020905b815481529060010190602001808311610d7857829003601f168201915b5050505050908060030160009054906101000a900460ff16908060040154905085565b60606000805480602002602001604051908101604052809291908181526020018280548015610e3c57602002820191906000526020600020905b8160009054906101000a900473ffffffffffffffffffffffffffffffffffffffff1673ffffffffffffffffffffffffffffffffffffffff1681526020019060010190808311610df2575b5050505050905090565b60008060006041845114610e8f576040517f08c379a0000000000000000000000000000000000000000000000000000000008152600401610e8690612e17565b60405180910390fd5b6020840151925060408401519150606084015160001a90509193909250565b600360003373ffffffffffffffffffffffffffffffffffffffff1673ffffffffffffffffffffffffffffffffffffffff16815260200190815260200160002060009054906101000a900460ff16610f3a576040517f08c379a0000000000000000000000000000000000000000000000000000000008152600401610f3190612a25565b60405180910390fd5b806001805490508110610f82576040517f08c379a0000000000000000000000000000000000000000000000000000000008152600401610f7990612a91565b60405180910390fd5b8160018181548110610f9757610f96612ab1565b5b906000526020600020906005020160030160009054906101000a900460ff1615610ff6576040517f08c379a0000000000000000000000000000000000000000000000000000000008152600401610fed90612b2c565b60405180910390fd5b826004600082815260200190815260200160002060003373ffffffffffffffffffffffffffffffffffffffff1673ffffffffffffffffffffffffffffffffffffffff16815260200190815260200160002060009054906101000a900460ff1615611095576040517f08c379a000000000000000000000000000000000000000000000000000000000815260040161108c90612e83565b60405180910390fd5b6000600185815481106110ab576110aa612ab1565b5b9060005260206000209060050201905060018160040160008282546110d09190612ea3565b9250508190555060016004600087815260200190815260200160002060003373ffffffffffffffffffffffffffffffffffffffff1673ffffffffffffffffffffffffffffffffffffffff16815260200190815260200160002060006101000a81548160ff021916908315150217905550843373ffffffffffffffffffffffffffffffffffffffff167f5cbe105e36805f7820e291f799d5794ff948af2a5f664e580382defb6339004160405160405180910390a35050505050565b600360003373ffffffffffffffffffffffffffffffffffffffff1673ffffffffffffffffffffffffffffffffffffffff16815260200190815260200160002060009054906101000a900460ff16611217576040517f08c379a000000000000000000000000000000000000000000000000000000000815260040161120e90612a25565b60405180910390fd5b6000600180549050905060016040518060a001604052808673ffffffffffffffffffffffffffffffffffffffff1681526020018581526020018481526020016000151581526020016000815250908060018154018082558091505060019003906000526020600020906005020160009091909190915060008201518160000160006101000a81548173ffffffffffffffffffffffffffffffffffffffff021916908373ffffffffffffffffffffffffffffffffffffffff1602179055506020820151816001015560408201518160020190805190602001906112fa929190612000565b5060608201518160030160006101000a81548160ff0219169083151502179055506080820151816004015550508373ffffffffffffffffffffffffffffffffffffffff16813373ffffffffffffffffffffffffffffffffffffffff167fd5a05bf70715ad82a09a756320284a1b54c9ff74cd0f8cce6219e79b563fe59d8686604051611387929190612ef9565b60405180910390a450505050565b600360003373ffffffffffffffffffffffffffffffffffffffff1673ffffffffffffffffffffffffffffffffffffffff16815260200190815260200160002060009054906101000a900460ff16611421576040517f08c379a000000000000000000000000000000000000000000000000000000000815260040161141890612a25565b60405180910390fd5b600073ffffffffffffffffffffffffffffffffffffffff168373ffffffffffffffffffffffffffffffffffffffff161415611491576040517f08c379a000000000000000000000000000000000000000000000000000000000815260040161148890612f75565b60405180910390fd5b80518251146114d5576040517f08c379a00000000000000000000000000000000000000000000000000000000081526004016114cc90613007565b60405180910390fd5b6005548151101561151b576040517f08c379a000000000000000000000000000000000000000000000000000000000815260040161151290613099565b60405180910390fd5b60005b82518110156115fb576002600084838151811061153e5761153d612ab1565b5b6020026020010151815260200190815260200160002060009054906101000a900460ff16156115a2576040517f08c379a000000000000000000000000000000000000000000000000000000000815260040161159990613105565b60405180910390fd5b6001600260008584815181106115bb576115ba612ab1565b5b6020026020010151815260200190815260200160002060006101000a81548160ff02191690831515021790555080806115f390613125565b91505061151e565b5060005b82518110156116ee5760005b82518110156116da5760006116618686858151811061162d5761162c612ab1565b5b60200260200101516040516020016116469291906131d7565b604051602081830303815290604052805190602001206108d8565b90506116878185848151811061167a57611679612ab1565b5b6020026020010151611f44565b6116c6576040517f08c379a00000000000000000000000000000000000000000000000000000000081526004016116bd9061324f565b60405180910390fd5b5080806116d290613125565b91505061160b565b5080806116e690613125565b9150506115ff565b506000600360008573ffffffffffffffffffffffffffffffffffffffff1673ffffffffffffffffffffffffffffffffffffffff16815260200190815260200160002060006101000a81548160ff0219169083151502179055508273ffffffffffffffffffffffffffffffffffffffff163373ffffffffffffffffffffffffffffffffffffffff167f0a9920843f89ec43b459df847863115220245568c104285bed68761cab929eef60405160405180910390a3505050565b60055481565b600360003373ffffffffffffffffffffffffffffffffffffffff1673ffffffffffffffffffffffffffffffffffffffff16815260200190815260200160002060009054906101000a900460ff16611838576040517f08c379a000000000000000000000000000000000000000000000000000000000815260040161182f90612a25565b60405180910390fd5b82600360008273ffffffffffffffffffffffffffffffffffffffff1673ffffffffffffffffffffffffffffffffffffffff16815260200190815260200160002060009054906101000a900460ff16156118c6576040517f08c379a00000000000000000000000000000000000000000000000000000000081526004016118bd90612dab565b60405180910390fd5b600073ffffffffffffffffffffffffffffffffffffffff168473ffffffffffffffffffffffffffffffffffffffff161415611936576040517f08c379a000000000000000000000000000000000000000000000000000000000815260040161192d90612f75565b60405180910390fd5b815183511461197a576040517f08c379a000000000000000000000000000000000000000000000000000000000815260040161197190613007565b60405180910390fd5b600554825110156119c0576040517f08c379a00000000000000000000000000000000000000000000000000000000081526004016119b790613099565b60405180910390fd5b60005b8351811015611aa057600260008583815181106119e3576119e2612ab1565b5b6020026020010151815260200190815260200160002060009054906101000a900460ff1615611a47576040517f08c379a0000000000000000000000000000000000000000000000000000000008152600401611a3e90613105565b60405180910390fd5b600160026000868481518110611a6057611a5f612ab1565b5b6020026020010151815260200190815260200160002060006101000a81548160ff0219169083151502179055508080611a9890613125565b9150506119c3565b5060005b8351811015611b935760005b8351811015611b7f576000611b0687878581518110611ad257611ad1612ab1565b5b6020026020010151604051602001611aeb9291906131d7565b604051602081830303815290604052805190602001206108d8565b9050611b2c81868481518110611b1f57611b1e612ab1565b5b6020026020010151611f44565b611b6b576040517f08c379a0000000000000000000000000000000000000000000000000000000008152600401611b629061324f565b60405180910390fd5b508080611b7790613125565b915050611ab0565b508080611b8b90613125565b915050611aa4565b506001600360008673ffffffffffffffffffffffffffffffffffffffff1673ffffffffffffffffffffffffffffffffffffffff16815260200190815260200160002060006101000a81548160ff0219169083151502179055508373ffffffffffffffffffffffffffffffffffffffff163373ffffffffffffffffffffffffffffffffffffffff167fd313a25c355bb3218db01b84b6e4337106b73f0f9f3b71ddb02769247d8b7f2560405160405180910390a350505050565b600360003373ffffffffffffffffffffffffffffffffffffffff1673ffffffffffffffffffffffffffffffffffffffff16815260200190815260200160002060009054906101000a900460ff16611cd8576040517f08c379a0000000000000000000000000000000000000000000000000000000008152600401611ccf90612a25565b60405180910390fd5b806001805490508110611d20576040517f08c379a0000000000000000000000000000000000000000000000000000000008152600401611d1790612a91565b60405180910390fd5b8160018181548110611d3557611d34612ab1565b5b906000526020600020906005020160030160009054906101000a900460ff1615611d94576040517f08c379a0000000000000000000000000000000000000000000000000000000008152600401611d8b90612b2c565b60405180910390fd5b600060018481548110611daa57611da9612ab1565b5b9060005260206000209060050201905060055481600401541015611e03576040517f08c379a0000000000000000000000000000000000000000000000000000000008152600401611dfa906132e1565b60405180910390fd5b60018160030160006101000a81548160ff02191690831515021790555060008160000160009054906101000a900473ffffffffffffffffffffffffffffffffffffffff1673ffffffffffffffffffffffffffffffffffffffff16826001015483600201604051611e7391906133a0565b60006040518083038185875af1925050503d8060008114611eb0576040519150601f19603f3d011682016040523d82523d6000602084013e611eb5565b606091505b5050905080611ef9576040517f08c379a0000000000000000000000000000000000000000000000000000000008152600401611ef090613403565b60405180910390fd5b843373ffffffffffffffffffffffffffffffffffffffff167f5445f318f4f5fcfb66592e68e0cc5822aa15664039bd5f0ffde24c5a8142b1ac60405160405180910390a35050505050565b600080611f51848461085c565b905060005b600080549050811015611ff35760008181548110611f7757611f76612ab1565b5b9060005260206000200160009054906101000a900473ffffffffffffffffffffffffffffffffffffffff1673ffffffffffffffffffffffffffffffffffffffff168273ffffffffffffffffffffffffffffffffffffffff161415611fe057600192505050611ffa565b8080611feb90613125565b915050611f56565b5060009150505b92915050565b82805461200c90612d2d565b90600052602060002090601f01602090048101928261202e5760008555612075565b82601f1061204757805160ff1916838001178555612075565b82800160010185558215612075579182015b82811115612074578251825591602001919060010190612059565b5b5090506120829190612086565b5090565b5b8082111561209f576000816000905550600101612087565b5090565b6000819050919050565b6120b6816120a3565b82525050565b60006040820190506120d160008301856120ad565b6120de60208301846120ad565b9392505050565b6000604051905090565b600080fd5b600080fd5b612102816120a3565b811461210d57600080fd5b50565b60008135905061211f816120f9565b92915050565b60006020828403121561213b5761213a6120ef565b5b600061214984828501612110565b91505092915050565b600073ffffffffffffffffffffffffffffffffffffffff82169050919050565b600061217d82612152565b9050919050565b61218d81612172565b82525050565b60006020820190506121a86000830184612184565b92915050565b6000819050919050565b6121c1816121ae565b81146121cc57600080fd5b50565b6000813590506121de816121b8565b92915050565b600080fd5b600080fd5b6000601f19601f8301169050919050565b7f4e487b7100000000000000000000000000000000000000000000000000000000600052604160045260246000fd5b612237826121ee565b810181811067ffffffffffffffff82111715612256576122556121ff565b5b80604052505050565b60006122696120e5565b9050612275828261222e565b919050565b600067ffffffffffffffff821115612295576122946121ff565b5b61229e826121ee565b9050602081019050919050565b82818337600083830152505050565b60006122cd6122c88461227a565b61225f565b9050828152602081018484840111156122e9576122e86121e9565b5b6122f48482856122ab565b509392505050565b600082601f830112612311576123106121e4565b5b81356123218482602086016122ba565b91505092915050565b60008060408385031215612341576123406120ef565b5b600061234f858286016121cf565b925050602083013567ffffffffffffffff8111156123705761236f6120f4565b5b61237c858286016122fc565b9150509250929050565b600060208201905061239b60008301846120ad565b92915050565b6000602082840312156123b7576123b66120ef565b5b60006123c5848285016121cf565b91505092915050565b6123d7816121ae565b82525050565b60006020820190506123f260008301846123ce565b92915050565b61240181612172565b811461240c57600080fd5b50565b60008135905061241e816123f8565b92915050565b60006020828403121561243a576124396120ef565b5b60006124488482850161240f565b91505092915050565b60008115159050919050565b61246681612451565b82525050565b6000602082019050612481600083018461245d565b92915050565b600081519050919050565b600082825260208201905092915050565b60005b838110156124c15780820151818401526020810190506124a6565b838111156124d0576000848401525b50505050565b60006124e182612487565b6124eb8185612492565b93506124fb8185602086016124a3565b612504816121ee565b840191505092915050565b600060a0820190506125246000830188612184565b61253160208301876120ad565b818103604083015261254381866124d6565b9050612552606083018561245d565b61255f60808301846120ad565b9695505050505050565b600080604083850312156125805761257f6120ef565b5b600061258e85828601612110565b925050602061259f8582860161240f565b9150509250929050565b600081519050919050565b600082825260208201905092915050565b6000819050602082019050919050565b6125de81612172565b82525050565b60006125f083836125d5565b60208301905092915050565b6000602082019050919050565b6000612614826125a9565b61261e81856125b4565b9350612629836125c5565b8060005b8381101561265a57815161264188826125e4565b975061264c836125fc565b92505060018101905061262d565b5085935050505092915050565b600060208201905081810360008301526126818184612609565b905092915050565b60006020828403121561269f5761269e6120ef565b5b600082013567ffffffffffffffff8111156126bd576126bc6120f4565b5b6126c9848285016122fc565b91505092915050565b600060ff82169050919050565b6126e8816126d2565b82525050565b600060608201905061270360008301866123ce565b61271060208301856123ce565b61271d60408301846126df565b949350505050565b60008060006060848603121561273e5761273d6120ef565b5b600061274c8682870161240f565b935050602061275d86828701612110565b925050604084013567ffffffffffffffff81111561277e5761277d6120f4565b5b61278a868287016122fc565b9150509250925092565b600067ffffffffffffffff8211156127af576127ae6121ff565b5b602082029050602081019050919050565b600080fd5b60006127d86127d384612794565b61225f565b905080838252602082019050602084028301858111156127fb576127fa6127c0565b5b835b8181101561282457806128108882612110565b8452602084019350506020810190506127fd565b5050509392505050565b600082601f830112612843576128426121e4565b5b81356128538482602086016127c5565b91505092915050565b600067ffffffffffffffff821115612877576128766121ff565b5b602082029050602081019050919050565b600061289b6128968461285c565b61225f565b905080838252602082019050602084028301858111156128be576128bd6127c0565b5b835b8181101561290557803567ffffffffffffffff8111156128e3576128e26121e4565b5b8086016128f089826122fc565b855260208501945050506020810190506128c0565b5050509392505050565b600082601f830112612924576129236121e4565b5b8135612934848260208601612888565b91505092915050565b600080600060608486031215612956576129556120ef565b5b60006129648682870161240f565b935050602084013567ffffffffffffffff811115612985576129846120f4565b5b6129918682870161282e565b925050604084013567ffffffffffffffff8111156129b2576129b16120f4565b5b6129be8682870161290f565b9150509250925092565b600082825260208201905092915050565b7f53454e4445525f49535f4e4f545f4f574e455200000000000000000000000000600082015250565b6000612a0f6013836129c8565b9150612a1a826129d9565b602082019050919050565b60006020820190508181036000830152612a3e81612a02565b9050919050565b7f5452414e53414354494f4e5f444f45535f4e4f545f4558495354000000000000600082015250565b6000612a7b601a836129c8565b9150612a8682612a45565b602082019050919050565b60006020820190508181036000830152612aaa81612a6e565b9050919050565b7f4e487b7100000000000000000000000000000000000000000000000000000000600052603260045260246000fd5b7f5452414e53414354494f4e5f49535f414c52454144595f455845435554454400600082015250565b6000612b16601f836129c8565b9150612b2182612ae0565b602082019050919050565b60006020820190508181036000830152612b4581612b09565b9050919050565b7f5452414e53414354494f4e5f49535f4e4f545f434f4e4649524d454400000000600082015250565b6000612b82601c836129c8565b9150612b8d82612b4c565b602082019050919050565b60006020820190508181036000830152612bb181612b75565b9050919050565b7f4e487b7100000000000000000000000000000000000000000000000000000000600052601160045260246000fd5b6000612bf2826120a3565b9150612bfd836120a3565b925082821015612c1057612c0f612bb8565b5b828203905092915050565b6000608082019050612c3060008301876123ce565b612c3d60208301866126df565b612c4a60408301856123ce565b612c5760608301846123ce565b95945050505050565b600081905092915050565b7f19457468657265756d205369676e6564204d6573736167653a0a333200000000600082015250565b6000612ca1601c83612c60565b9150612cac82612c6b565b601c82019050919050565b6000819050919050565b612cd2612ccd826121ae565b612cb7565b82525050565b6000612ce382612c94565b9150612cef8284612cc1565b60208201915081905092915050565b7f4e487b7100000000000000000000000000000000000000000000000000000000600052602260045260246000fd5b60006002820490506001821680612d4557607f821691505b60208210811415612d5957612d58612cfe565b5b50919050565b7f4f4e5745525f49535f414c52454144595f415050524f56454400000000000000600082015250565b6000612d956019836129c8565b9150612da082612d5f565b602082019050919050565b60006020820190508181036000830152612dc481612d88565b9050919050565b7f494e56414c49445f5349474e41545552455f4c454e4754480000000000000000600082015250565b6000612e016018836129c8565b9150612e0c82612dcb565b602082019050919050565b60006020820190508181036000830152612e3081612df4565b9050919050565b7f5452414e53414354494f4e5f49535f414c52454144595f434f4e4649524d4544600082015250565b6000612e6d6020836129c8565b9150612e7882612e37565b602082019050919050565b60006020820190508181036000830152612e9c81612e60565b9050919050565b6000612eae826120a3565b9150612eb9836120a3565b9250827fffffffffffffffffffffffffffffffffffffffffffffffffffffffffffffffff03821115612eee57612eed612bb8565b5b828201905092915050565b6000604082019050612f0e60008301856120ad565b8181036020830152612f2081846124d6565b90509392505050565b7f494e56414c49445f4f574e45525f414444524553530000000000000000000000600082015250565b6000612f5f6015836129c8565b9150612f6a82612f29565b602082019050919050565b60006020820190508181036000830152612f8e81612f52565b9050919050565b7f4e4f4e4345535f4152455f4e4f545f434f52524553504f4e44494e475f54484560008201527f5f5349474e415455524553000000000000000000000000000000000000000000602082015250565b6000612ff1602b836129c8565b9150612ffc82612f95565b604082019050919050565b6000602082019050818103600083015261302081612fe4565b9050919050565b7f554e53554646494349454e545f5349474e4154555245535f434f4e4649524d4160008201527f54494f4e53000000000000000000000000000000000000000000000000000000602082015250565b60006130836025836129c8565b915061308e82613027565b604082019050919050565b600060208201905081810360008301526130b281613076565b9050919050565b7f4e4f4e43455f49535f414c52454144595f555345440000000000000000000000600082015250565b60006130ef6015836129c8565b91506130fa826130b9565b602082019050919050565b6000602082019050818103600083015261311e816130e2565b9050919050565b6000613130826120a3565b91507fffffffffffffffffffffffffffffffffffffffffffffffffffffffffffffffff82141561316357613162612bb8565b5b600182019050919050565b60008160601b9050919050565b60006131868261316e565b9050919050565b60006131988261317b565b9050919050565b6131b06131ab82612172565b61318d565b82525050565b6000819050919050565b6131d16131cc826120a3565b6131b6565b82525050565b60006131e3828561319f565b6014820191506131f382846131c0565b6020820191508190509392505050565b7f4449474954414c5f5349474e41545552455f49535f4e4f545f47454e55494e45600082015250565b60006132396020836129c8565b915061324482613203565b602082019050919050565b600060208201905081810360008301526132688161322c565b9050919050565b7f494e53554646494349454e545f434f4e4649524d4154494f4e535f414d4f554e60008201527f5400000000000000000000000000000000000000000000000000000000000000602082015250565b60006132cb6021836129c8565b91506132d68261326f565b604082019050919050565b600060208201905081810360008301526132fa816132be565b9050919050565b600081905092915050565b60008190508160005260206000209050919050565b6000815461332e81612d2d565b6133388186613301565b94506001821660008114613353576001811461336457613397565b60ff19831686528186019350613397565b61336d8561330c565b60005b8381101561338f57815481890152600182019150602081019050613370565b838801955050505b50505092915050565b60006133ac8284613321565b915081905092915050565b7f5452414e53414354494f4e5f4641494c45440000000000000000000000000000600082015250565b60006133ed6012836129c8565b91506133f8826133b7565b602082019050919050565b6000602082019050818103600083015261341c816133e0565b905091905056fea2646970667358221220b6da2e7e92902a0f1dd5b4299d2971bf4566274e11ae77677f340e8fd48d355364736f6c634300080b0033",
  "immutableReferences": {},
  "source": "//SPDX-License-Identifier: MIT\r\n\r\npragma solidity ^0.8.10;\r\n\r\ncontract MultiSigBearWallet {\r\n\r\n    event Deposit(address indexed sender, uint amount, uint balance);\r\n    event SubmitTransaction(address indexed owner, uint indexed txIndex, address indexed to, uint value, bytes data);\r\n    event ConfirmTransaction(address indexed owner, uint indexed txIndex);\r\n    event RevokeConfirmation(address indexed owner, uint indexed txIndex);\r\n    event ExecuteTransaction(address indexed owner, uint indexed txIndex);\r\n    event OwnerAddition(address indexed sender, address indexed newOwner);\r\n    event OwnerApproval(address indexed sender, address indexed approvedOwner);\r\n    event OwnerDisactivation(address indexed sender, address indexed disactivatedOwner);\r\n\r\n    address[] public owners;\r\n    Transaction[] public transactions;\r\n    mapping(uint256 => bool) public usedNonces;\r\n    mapping(address => bool) public isOwner;\r\n    mapping(uint => mapping(address => bool)) public isConfirmed;\r\n    uint public confirmationsRequired;\r\n\r\n    struct Transaction {\r\n        address to;\r\n        uint value;\r\n        bytes data;\r\n        bool executed;\r\n        uint confirmations;\r\n    }\r\n\r\n    modifier onlyOwner() {\r\n        require(isOwner[msg.sender], \"SENDER_IS_NOT_OWNER\");\r\n        _;\r\n    }\r\n\r\n    modifier onwerNotApproved(address _owner) {\r\n        require(!isOwner[_owner], \"ONWER_IS_ALREADY_APPROVED\");\r\n        _;\r\n    }\r\n\r\n    modifier txExists(uint _txIndex) {\r\n        require(_txIndex < transactions.length, \"TRANSACTION_DOES_NOT_EXIST\");\r\n        _;\r\n    }\r\n\r\n    modifier notExecuted(uint _txIndex) {\r\n        require(!transactions[_txIndex].executed, \"TRANSACTION_IS_ALREADY_EXECUTED\");\r\n        _;\r\n    }\r\n\r\n    modifier notConfirmed(uint _txIndex) {\r\n        require(!isConfirmed[_txIndex][msg.sender], \"TRANSACTION_IS_ALREADY_CONFIRMED\");\r\n        _;\r\n    }\r\n\r\n    constructor(address[] memory _owners, uint _confirmationsRequired) {\r\n        require(_owners.length > 0, \"NULL_OWNERS_PROVIDED\");\r\n        require(_confirmationsRequired > 0 && \r\n                    _confirmationsRequired <= _owners.length, \"INVALID_CONFIRMATIONS_NUMBER\");\r\n\r\n        for (uint i = 0; i < _owners.length; i++) {\r\n            address owner = _owners[i];\r\n\r\n            require(owner != address(0), \"INVALID_OWNER_PROVIDED\");\r\n            require(!isOwner[owner], \"NOT_UNIQUE_OWNER_PROVIDED\");\r\n\r\n            isOwner[owner] = true;\r\n            owners.push(owner);\r\n        }\r\n        confirmationsRequired = _confirmationsRequired;\r\n    }\r\n\r\n    receive() external payable {\r\n        emit Deposit(msg.sender, msg.value, address(this).balance);\r\n    }\r\n\r\n    function submitTransaction(address _to, uint _value, bytes memory _data) public onlyOwner {\r\n        uint txIndex = transactions.length;\r\n\r\n        transactions.push(Transaction({\r\n            to: _to,\r\n            value: _value,\r\n            data: _data,\r\n            executed: false,\r\n            confirmations: 0\r\n        }));\r\n\r\n        emit SubmitTransaction(msg.sender, txIndex, _to, _value, _data);\r\n    }\r\n\r\n    function confirmTransaction(uint _txIndex) public onlyOwner txExists(_txIndex) notExecuted(_txIndex) notConfirmed(_txIndex) {\r\n        Transaction storage transaction = transactions[_txIndex];\r\n\r\n        transaction.confirmations += 1;\r\n        isConfirmed[_txIndex][msg.sender] = true;\r\n\r\n        emit ConfirmTransaction(msg.sender, _txIndex);\r\n    }\r\n\r\n    function revokeConfirmation(uint _txIndex) public onlyOwner txExists(_txIndex) notExecuted(_txIndex) {\r\n        Transaction storage transaction = transactions[_txIndex];\r\n\r\n        require(isConfirmed[_txIndex][msg.sender], \"TRANSACTION_IS_NOT_CONFIRMED\");\r\n\r\n        transaction.confirmations -= 1;\r\n        isConfirmed[_txIndex][msg.sender] = false;\r\n\r\n        emit RevokeConfirmation(msg.sender, _txIndex);\r\n    }\r\n\r\n    function executeTransaction(uint _txIndex) public onlyOwner txExists(_txIndex) notExecuted(_txIndex) {\r\n        Transaction storage transaction = transactions[_txIndex];\r\n\r\n        require(transaction.confirmations >= confirmationsRequired, \"INSUFFICIENT_CONFIRMATIONS_AMOUNT\");\r\n\r\n        transaction.executed = true;\r\n\r\n        (bool success, ) = transaction.to.call{value: transaction.value}(transaction.data);\r\n        require(success, \"TRANSACTION_FAILED\");\r\n\r\n        emit ExecuteTransaction(msg.sender, _txIndex);\r\n    }\r\n\r\n    function addOwner(address _owner) public onlyOwner onwerNotApproved(_owner) {\r\n        owners.push(_owner);\r\n        isOwner[_owner] = false;\r\n        emit OwnerAddition(msg.sender, _owner);\r\n    }\r\n\r\n    function approveOwner(address _owner, uint[] memory nonces, bytes[] memory signatures) public onlyOwner onwerNotApproved(_owner) {\r\n        require(_owner != address(0), \"INVALID_OWNER_ADDRESS\");\r\n        require(nonces.length == signatures.length, \"NONCES_ARE_NOT_CORRESPONDING_THE_SIGNATURES\");\r\n        require(signatures.length >= confirmationsRequired, \"UNSUFFICIENT_SIGNATURES_CONFIRMATIONS\");\r\n        for (uint i = 0; i < nonces.length; i++) {\r\n            require(!usedNonces[nonces[i]], \"NONCE_IS_ALREADY_USED\");\r\n            usedNonces[nonces[i]] = true;\r\n        }\r\n        for (uint j = 0; j < nonces.length; j++) {\r\n            for (uint k = 0; k < signatures.length; k++) {\r\n                bytes32 message = getEthSignedHash(keccak256(abi.encodePacked(_owner, nonces[j])));\r\n                require(validate(message, signatures[k]), \"DIGITAL_SIGNATURE_IS_NOT_GENUINE\");\r\n            }\r\n        }\r\n        isOwner[_owner] = true;\r\n        emit OwnerApproval(msg.sender, _owner);\r\n    }\r\n\r\n    function disactivateOwner(address _owner, uint[] memory nonces, bytes[] memory signatures) public onlyOwner {\r\n        require(_owner != address(0), \"INVALID_OWNER_ADDRESS\");\r\n        require(nonces.length == signatures.length, \"NONCES_ARE_NOT_CORRESPONDING_THE_SIGNATURES\");\r\n        require(signatures.length >= confirmationsRequired, \"UNSUFFICIENT_SIGNATURES_CONFIRMATIONS\");\r\n        for (uint i = 0; i < nonces.length; i++) {\r\n            require(!usedNonces[nonces[i]], \"NONCE_IS_ALREADY_USED\");\r\n            usedNonces[nonces[i]] = true;\r\n        }\r\n        for (uint j = 0; j < nonces.length; j++) {\r\n            for (uint k = 0; k < signatures.length; k++) {\r\n                bytes32 message = getEthSignedHash(keccak256(abi.encodePacked(_owner, nonces[j])));\r\n                require(validate(message, signatures[k]), \"DIGITAL_SIGNATURE_IS_NOT_GENUINE\");\r\n            }\r\n        }\r\n        isOwner[_owner] = false;\r\n        emit OwnerDisactivation(msg.sender, _owner);\r\n    }\r\n\r\n    function validate(bytes32 message, bytes memory sig) private view returns (bool genuine) {\r\n        address validator = verify(message, sig);\r\n\r\n        for (uint i = 0; i < owners.length; i++) {\r\n            if (validator == owners[i]) {\r\n                return true;\r\n            }\r\n        }\r\n        return false;\r\n    }\r\n\r\n    function getEthSignedHash(bytes32 _message) public pure returns (bytes32) {\r\n        return keccak256(abi.encodePacked(\"\\x19Ethereum Signed Message:\\n32\", _message));\r\n    }\r\n\r\n    function splitSignature(bytes memory signature) public pure returns (bytes32 r, bytes32 s, uint8 v) {\r\n        require(signature.length == 65, \"INVALID_SIGNATURE_LENGTH\");\r\n        assembly {\r\n            r := mload(add(signature, 32))\r\n            s := mload(add(signature, 64))\r\n            v := byte(0, mload(add(signature, 96)))\r\n        }\r\n        return (r, s, v);\r\n    } \r\n\r\n    function verify(bytes32 _ethSignedMessage, bytes memory _signanture) public pure returns (address) {\r\n        (bytes32 r, bytes32 s, uint8 v) = splitSignature(_signanture);\r\n        return ecrecover(_ethSignedMessage, v, r, s);\r\n    }\r\n\r\n    function getOwners() public view returns (address[] memory) {\r\n        return owners;\r\n    }\r\n\r\n    function getTransactionCount() public view returns (uint) {\r\n        return transactions.length;\r\n    }\r\n\r\n    function getTransaction(uint _txIndex) public view returns (address to, uint value, bytes memory data, bool executed, uint confimations) {\r\n        Transaction storage transaction = transactions[_txIndex];\r\n        return (transaction.to, transaction.value, transaction.data, transaction.executed, transaction.confirmations); \r\n    }\r\n\r\n}",
  "sourcePath": "D:\\Clouds\\Google Drive\\GIT\\Clicker-Bear-Token-DApp-Ethereum\\contracts\\multisig.wallet\\BearWallet.sol",
  "compiler": {
    "name": "solc",
    "version": "0.8.11+commit.d7f03943.Emscripten.clang"
  },
  "schemaVersion": "3.4.4",
  "updatedAt": "2022-02-26T14:36:17.146Z",
  "networkType": "ethereum",
  "devdoc": {
    "kind": "dev",
    "methods": {},
    "version": 1
  },
  "userdoc": {
    "kind": "user",
    "methods": {},
    "version": 1
  }
}