{
  "contractName": "PaymentChannel",
  "abi": [
    {
      "inputs": [
        {
          "internalType": "address",
          "name": "_owner",
          "type": "address"
        }
      ],
      "stateMutability": "nonpayable",
      "type": "constructor"
    },
    {
      "anonymous": false,
      "inputs": [
        {
          "indexed": true,
          "internalType": "address",
          "name": "owner",
          "type": "address"
        },
        {
          "indexed": true,
          "internalType": "address[]",
          "name": "validators",
          "type": "address[]"
        }
      ],
      "name": "ReplacementValidators",
      "type": "event"
    },
    {
      "anonymous": false,
      "inputs": [
        {
          "indexed": true,
          "internalType": "address",
          "name": "player",
          "type": "address"
        },
        {
          "indexed": false,
          "internalType": "uint256",
          "name": "payment",
          "type": "uint256"
        },
        {
          "indexed": false,
          "internalType": "uint256",
          "name": "nonce",
          "type": "uint256"
        },
        {
          "indexed": true,
          "internalType": "bytes",
          "name": "sig",
          "type": "bytes"
        }
      ],
      "name": "Withdrawal",
      "type": "event"
    },
    {
      "inputs": [
        {
          "internalType": "uint256",
          "name": "",
          "type": "uint256"
        }
      ],
      "name": "_usedNonces",
      "outputs": [
        {
          "internalType": "bool",
          "name": "",
          "type": "bool"
        }
      ],
      "stateMutability": "view",
      "type": "function",
      "constant": true
    },
    {
      "inputs": [
        {
          "internalType": "uint256",
          "name": "",
          "type": "uint256"
        }
      ],
      "name": "_validators",
      "outputs": [
        {
          "internalType": "address",
          "name": "",
          "type": "address"
        }
      ],
      "stateMutability": "view",
      "type": "function",
      "constant": true
    },
    {
      "inputs": [
        {
          "internalType": "address[]",
          "name": "validators",
          "type": "address[]"
        }
      ],
      "name": "replaceValidators",
      "outputs": [],
      "stateMutability": "nonpayable",
      "type": "function"
    },
    {
      "inputs": [
        {
          "internalType": "address",
          "name": "token",
          "type": "address"
        }
      ],
      "name": "connectToken",
      "outputs": [],
      "stateMutability": "nonpayable",
      "type": "function"
    },
    {
      "inputs": [],
      "name": "getValidators",
      "outputs": [
        {
          "internalType": "address[]",
          "name": "",
          "type": "address[]"
        }
      ],
      "stateMutability": "view",
      "type": "function",
      "constant": true
    },
    {
      "inputs": [
        {
          "internalType": "bytes32",
          "name": "message",
          "type": "bytes32"
        },
        {
          "internalType": "bytes",
          "name": "sig",
          "type": "bytes"
        }
      ],
      "name": "validate",
      "outputs": [
        {
          "internalType": "bool",
          "name": "genuine",
          "type": "bool"
        }
      ],
      "stateMutability": "view",
      "type": "function",
      "constant": true
    },
    {
      "inputs": [
        {
          "internalType": "address",
          "name": "_reciever",
          "type": "address"
        },
        {
          "internalType": "uint256",
          "name": "payment",
          "type": "uint256"
        },
        {
          "internalType": "uint256",
          "name": "nonce",
          "type": "uint256"
        },
        {
          "internalType": "bytes",
          "name": "sig",
          "type": "bytes"
        }
      ],
      "name": "claimPayment",
      "outputs": [],
      "stateMutability": "nonpayable",
      "type": "function"
    },
    {
      "inputs": [
        {
          "internalType": "bytes32",
          "name": "_message",
          "type": "bytes32"
        }
      ],
      "name": "getEthSignedHash",
      "outputs": [
        {
          "internalType": "bytes32",
          "name": "",
          "type": "bytes32"
        }
      ],
      "stateMutability": "pure",
      "type": "function",
      "constant": true
    },
    {
      "inputs": [
        {
          "internalType": "bytes",
          "name": "signature",
          "type": "bytes"
        }
      ],
      "name": "splitSignature",
      "outputs": [
        {
          "internalType": "bytes32",
          "name": "r",
          "type": "bytes32"
        },
        {
          "internalType": "bytes32",
          "name": "s",
          "type": "bytes32"
        },
        {
          "internalType": "uint8",
          "name": "v",
          "type": "uint8"
        }
      ],
      "stateMutability": "pure",
      "type": "function",
      "constant": true
    },
    {
      "inputs": [
        {
          "internalType": "bytes32",
          "name": "_ethSignedMessage",
          "type": "bytes32"
        },
        {
          "internalType": "bytes",
          "name": "_signanture",
          "type": "bytes"
        }
      ],
      "name": "verify",
      "outputs": [
        {
          "internalType": "address",
          "name": "",
          "type": "address"
        }
      ],
      "stateMutability": "pure",
      "type": "function",
      "constant": true
    }
  ],
  "bytecode": "0x60806040523480156200001157600080fd5b50604051620017d6380380620017d68339818101604052810190620000379190620000e9565b80600460006101000a81548173ffffffffffffffffffffffffffffffffffffffff021916908373ffffffffffffffffffffffffffffffffffffffff160217905550506200011b565b600080fd5b600073ffffffffffffffffffffffffffffffffffffffff82169050919050565b6000620000b18262000084565b9050919050565b620000c381620000a4565b8114620000cf57600080fd5b50565b600081519050620000e381620000b8565b92915050565b6000602082840312156200010257620001016200007f565b5b60006200011284828501620000d2565b91505092915050565b6116ab806200012b6000396000f3fe608060405234801561001057600080fd5b506004361061009e5760003560e01c80638e8a87ef116100665780638e8a87ef1461017f57806399413b4e1461019b578063a7bb5803146101b7578063b7ab4db5146101e9578063f90ecacc146102075761009e565b8063258ae582146100a35780632964225f146100d35780632f4ea5ea14610103578063410b9c051461013357806365a8613c1461014f575b600080fd5b6100bd60048036038101906100b89190610b73565b610237565b6040516100ca9190610c10565b60405180910390f35b6100ed60048036038101906100e89190610c61565b6102a6565b6040516100fa9190610ca9565b60405180910390f35b61011d60048036038101906101189190610cc4565b6102c6565b60405161012a9190610d00565b60405180910390f35b61014d60048036038101906101489190610d47565b6102f6565b005b61016960048036038101906101649190610b73565b610533565b6040516101769190610ca9565b60405180910390f35b61019960048036038101906101949190610e92565b6105ef565b005b6101b560048036038101906101b09190610edb565b6106f2565b005b6101d160048036038101906101cc9190610f08565b610807565b6040516101e093929190610f6d565b60405180910390f35b6101f161086f565b6040516101fe9190611062565b60405180910390f35b610221600480360381019061021c9190610c61565b6108fd565b60405161022e9190610c10565b60405180910390f35b60008060008061024685610807565b9250925092506001868285856040516000815260200160405260405161026f9493929190611084565b6020604051602081039080840390855afa158015610291573d6000803e3d6000fd5b50505060206040510351935050505092915050565b60006020528060005260406000206000915054906101000a900460ff1681565b6000816040516020016102d99190611141565b604051602081830303815290604052805190602001209050919050565b60008083815260200190815260200160002060009054906101000a900460ff1615610356576040517f08c379a000000000000000000000000000000000000000000000000000000000815260040161034d906111c4565b60405180910390fd5b600160008084815260200190815260200160002060006101000a81548160ff02191690831515021790555060006103b685858560405160200161039b9392919061124d565b604051602081830303815290604052805190602001206102c6565b90506103c28183610533565b610401576040517f08c379a00000000000000000000000000000000000000000000000000000000081526004016103f8906112d6565b60405180910390fd5b600260009054906101000a900473ffffffffffffffffffffffffffffffffffffffff1673ffffffffffffffffffffffffffffffffffffffff166323b872dd600460009054906101000a900473ffffffffffffffffffffffffffffffffffffffff1687876040518463ffffffff1660e01b815260040161048293929190611305565b6020604051808303816000875af11580156104a1573d6000803e3d6000fd5b505050506040513d601f19601f820116820180604052508101906104c59190611368565b50816040516104d4919061140f565b60405180910390208573ffffffffffffffffffffffffffffffffffffffff167f439e97f6510420d1c0a80ded1e38ef053e9f7fdc940d11c9b6485a8a4ff1087d8686604051610524929190611426565b60405180910390a35050505050565b6000806105408484610237565b905060005b6001805490508110156105e257600181815481106105665761056561144f565b5b9060005260206000200160009054906101000a900473ffffffffffffffffffffffffffffffffffffffff1673ffffffffffffffffffffffffffffffffffffffff168273ffffffffffffffffffffffffffffffffffffffff1614156105cf576001925050506105e9565b80806105da906114ad565b915050610545565b5060009150505b92915050565b600460009054906101000a900473ffffffffffffffffffffffffffffffffffffffff1673ffffffffffffffffffffffffffffffffffffffff163373ffffffffffffffffffffffffffffffffffffffff161461067f576040517f08c379a000000000000000000000000000000000000000000000000000000000815260040161067690611542565b60405180910390fd5b806001908051906020019061069592919061093c565b50806040516106a491906115f2565b60405180910390203373ffffffffffffffffffffffffffffffffffffffff167ffcf631ce6c9189d727fe8780772e788a9fa14032b34ecfbae9af10aec88b629860405160405180910390a350565b600460009054906101000a900473ffffffffffffffffffffffffffffffffffffffff1673ffffffffffffffffffffffffffffffffffffffff163373ffffffffffffffffffffffffffffffffffffffff1614610782576040517f08c379a000000000000000000000000000000000000000000000000000000000815260040161077990611542565b60405180910390fd5b80600260006101000a81548173ffffffffffffffffffffffffffffffffffffffff021916908373ffffffffffffffffffffffffffffffffffffffff16021790555080600360006101000a81548173ffffffffffffffffffffffffffffffffffffffff021916908373ffffffffffffffffffffffffffffffffffffffff16021790555050565b60008060006041845114610850576040517f08c379a000000000000000000000000000000000000000000000000000000000815260040161084790611655565b60405180910390fd5b6020840151925060408401519150606084015160001a90509193909250565b606060018054806020026020016040519081016040528092919081815260200182805480156108f357602002820191906000526020600020905b8160009054906101000a900473ffffffffffffffffffffffffffffffffffffffff1673ffffffffffffffffffffffffffffffffffffffff16815260200190600101908083116108a9575b5050505050905090565b6001818154811061090d57600080fd5b906000526020600020016000915054906101000a900473ffffffffffffffffffffffffffffffffffffffff1681565b8280548282559060005260206000209081019282156109b5579160200282015b828111156109b45782518260006101000a81548173ffffffffffffffffffffffffffffffffffffffff021916908373ffffffffffffffffffffffffffffffffffffffff1602179055509160200191906001019061095c565b5b5090506109c291906109c6565b5090565b5b808211156109df5760008160009055506001016109c7565b5090565b6000604051905090565b600080fd5b600080fd5b6000819050919050565b610a0a816109f7565b8114610a1557600080fd5b50565b600081359050610a2781610a01565b92915050565b600080fd5b600080fd5b6000601f19601f8301169050919050565b7f4e487b7100000000000000000000000000000000000000000000000000000000600052604160045260246000fd5b610a8082610a37565b810181811067ffffffffffffffff82111715610a9f57610a9e610a48565b5b80604052505050565b6000610ab26109e3565b9050610abe8282610a77565b919050565b600067ffffffffffffffff821115610ade57610add610a48565b5b610ae782610a37565b9050602081019050919050565b82818337600083830152505050565b6000610b16610b1184610ac3565b610aa8565b905082815260208101848484011115610b3257610b31610a32565b5b610b3d848285610af4565b509392505050565b600082601f830112610b5a57610b59610a2d565b5b8135610b6a848260208601610b03565b91505092915050565b60008060408385031215610b8a57610b896109ed565b5b6000610b9885828601610a18565b925050602083013567ffffffffffffffff811115610bb957610bb86109f2565b5b610bc585828601610b45565b9150509250929050565b600073ffffffffffffffffffffffffffffffffffffffff82169050919050565b6000610bfa82610bcf565b9050919050565b610c0a81610bef565b82525050565b6000602082019050610c256000830184610c01565b92915050565b6000819050919050565b610c3e81610c2b565b8114610c4957600080fd5b50565b600081359050610c5b81610c35565b92915050565b600060208284031215610c7757610c766109ed565b5b6000610c8584828501610c4c565b91505092915050565b60008115159050919050565b610ca381610c8e565b82525050565b6000602082019050610cbe6000830184610c9a565b92915050565b600060208284031215610cda57610cd96109ed565b5b6000610ce884828501610a18565b91505092915050565b610cfa816109f7565b82525050565b6000602082019050610d156000830184610cf1565b92915050565b610d2481610bef565b8114610d2f57600080fd5b50565b600081359050610d4181610d1b565b92915050565b60008060008060808587031215610d6157610d606109ed565b5b6000610d6f87828801610d32565b9450506020610d8087828801610c4c565b9350506040610d9187828801610c4c565b925050606085013567ffffffffffffffff811115610db257610db16109f2565b5b610dbe87828801610b45565b91505092959194509250565b600067ffffffffffffffff821115610de557610de4610a48565b5b602082029050602081019050919050565b600080fd5b6000610e0e610e0984610dca565b610aa8565b90508083825260208201905060208402830185811115610e3157610e30610df6565b5b835b81811015610e5a5780610e468882610d32565b845260208401935050602081019050610e33565b5050509392505050565b600082601f830112610e7957610e78610a2d565b5b8135610e89848260208601610dfb565b91505092915050565b600060208284031215610ea857610ea76109ed565b5b600082013567ffffffffffffffff811115610ec657610ec56109f2565b5b610ed284828501610e64565b91505092915050565b600060208284031215610ef157610ef06109ed565b5b6000610eff84828501610d32565b91505092915050565b600060208284031215610f1e57610f1d6109ed565b5b600082013567ffffffffffffffff811115610f3c57610f3b6109f2565b5b610f4884828501610b45565b91505092915050565b600060ff82169050919050565b610f6781610f51565b82525050565b6000606082019050610f826000830186610cf1565b610f8f6020830185610cf1565b610f9c6040830184610f5e565b949350505050565b600081519050919050565b600082825260208201905092915050565b6000819050602082019050919050565b610fd981610bef565b82525050565b6000610feb8383610fd0565b60208301905092915050565b6000602082019050919050565b600061100f82610fa4565b6110198185610faf565b935061102483610fc0565b8060005b8381101561105557815161103c8882610fdf565b975061104783610ff7565b925050600181019050611028565b5085935050505092915050565b6000602082019050818103600083015261107c8184611004565b905092915050565b60006080820190506110996000830187610cf1565b6110a66020830186610f5e565b6110b36040830185610cf1565b6110c06060830184610cf1565b95945050505050565b600081905092915050565b7f19457468657265756d205369676e6564204d6573736167653a0a333200000000600082015250565b600061110a601c836110c9565b9150611115826110d4565b601c82019050919050565b6000819050919050565b61113b611136826109f7565b611120565b82525050565b600061114c826110fd565b9150611158828461112a565b60208201915081905092915050565b600082825260208201905092915050565b7f4e4f4e43455f49535f414c52454144595f555345440000000000000000000000600082015250565b60006111ae601583611167565b91506111b982611178565b602082019050919050565b600060208201905081810360008301526111dd816111a1565b9050919050565b60008160601b9050919050565b60006111fc826111e4565b9050919050565b600061120e826111f1565b9050919050565b61122661122182610bef565b611203565b82525050565b6000819050919050565b61124761124282610c2b565b61122c565b82525050565b60006112598286611215565b6014820191506112698285611236565b6020820191506112798284611236565b602082019150819050949350505050565b7f4449474954414c5f5349474e41545552455f49535f4e4f545f47454e55494e45600082015250565b60006112c0602083611167565b91506112cb8261128a565b602082019050919050565b600060208201905081810360008301526112ef816112b3565b9050919050565b6112ff81610c2b565b82525050565b600060608201905061131a6000830186610c01565b6113276020830185610c01565b61133460408301846112f6565b949350505050565b61134581610c8e565b811461135057600080fd5b50565b6000815190506113628161133c565b92915050565b60006020828403121561137e5761137d6109ed565b5b600061138c84828501611353565b91505092915050565b600081519050919050565b600081905092915050565b60005b838110156113c95780820151818401526020810190506113ae565b838111156113d8576000848401525b50505050565b60006113e982611395565b6113f381856113a0565b93506114038185602086016113ab565b80840191505092915050565b600061141b82846113de565b915081905092915050565b600060408201905061143b60008301856112f6565b61144860208301846112f6565b9392505050565b7f4e487b7100000000000000000000000000000000000000000000000000000000600052603260045260246000fd5b7f4e487b7100000000000000000000000000000000000000000000000000000000600052601160045260246000fd5b60006114b882610c2b565b91507fffffffffffffffffffffffffffffffffffffffffffffffffffffffffffffffff8214156114eb576114ea61147e565b5b600182019050919050565b7f53454e4445525f49535f4e4f545f4f574e455200000000000000000000000000600082015250565b600061152c601383611167565b9150611537826114f6565b602082019050919050565b6000602082019050818103600083015261155b8161151f565b9050919050565b600081905092915050565b61157681610bef565b82525050565b6000611588838361156d565b60208301905092915050565b600061159f82610fa4565b6115a98185611562565b93506115b483610fc0565b8060005b838110156115e55781516115cc888261157c565b97506115d783610ff7565b9250506001810190506115b8565b5085935050505092915050565b60006115fe8284611594565b915081905092915050565b7f494e56414c49445f5349474e41545552455f4c454e4754480000000000000000600082015250565b600061163f601883611167565b915061164a82611609565b602082019050919050565b6000602082019050818103600083015261166e81611632565b905091905056fea2646970667358221220ee321f0437664e454d43151abf5d0c5fedb11d87786616260df33b62387a88b564736f6c634300080b0033",
  "immutableReferences": {},
  "source": "//SPDX-License-Identifier: MIT\r\n\r\npragma solidity ^0.8.10;\r\n\r\ninterface IBearToken {\r\n    function transferFrom(address _from, address _to, uint256 _value) external returns (bool success);\r\n}\r\n\r\ncontract PaymentChannel {\r\n\r\n    event ReplacementValidators(address indexed owner, address[] indexed validators);\r\n    event Withdrawal(address indexed player, uint256 payment, uint256 nonce, bytes indexed sig);\r\n\r\n    mapping(uint256 => bool) public _usedNonces;\r\n    address[] public _validators;\r\n    IBearToken private _token;\r\n    address connectedToken;\r\n    address owner;\r\n\r\n    modifier onlyOwner() {\r\n        require(msg.sender == owner, \"SENDER_IS_NOT_OWNER\");\r\n        _;\r\n    }\r\n\r\n    constructor(address _owner) {\r\n        owner = _owner;\r\n    }\r\n\r\n    function replaceValidators(address[] memory validators) public onlyOwner {\r\n        _validators = validators;\r\n        emit ReplacementValidators(msg.sender, validators);\r\n    }\r\n\r\n    function connectToken(address token) public onlyOwner {\r\n        _token = IBearToken(token);\r\n        connectedToken = token;\r\n    }\r\n\r\n    function getValidators() public view returns(address[] memory) {\r\n        return _validators;\r\n    }\r\n\r\n    function validate(bytes32 message, bytes memory sig) public view returns (bool genuine) {\r\n        address validator = verify(message, sig);\r\n\r\n        for (uint i = 0; i < _validators.length; i++) {\r\n            if (validator == _validators[i]) {\r\n                return true;\r\n            }\r\n        }\r\n        return false;\r\n    }\r\n\r\n    function claimPayment(address _reciever, uint256 payment, uint256 nonce, bytes memory sig) public {\r\n        require(!_usedNonces[nonce], \"NONCE_IS_ALREADY_USED\");\r\n        _usedNonces[nonce] = true;\r\n        bytes32 message = getEthSignedHash(keccak256(abi.encodePacked(_reciever, payment, nonce)));\r\n        require(validate(message, sig), \"DIGITAL_SIGNATURE_IS_NOT_GENUINE\");\r\n        _token.transferFrom(owner, _reciever, payment);\r\n        emit Withdrawal(_reciever, payment, nonce, sig);\r\n    }\r\n\r\n    function getEthSignedHash(bytes32 _message) public pure returns (bytes32) {\r\n        return keccak256(abi.encodePacked(\"\\x19Ethereum Signed Message:\\n32\", _message));\r\n    }\r\n\r\n    function splitSignature(bytes memory signature) public pure returns (bytes32 r, bytes32 s, uint8 v) {\r\n        require(signature.length == 65, \"INVALID_SIGNATURE_LENGTH\");\r\n        assembly {\r\n            r := mload(add(signature, 32))\r\n            s := mload(add(signature, 64))\r\n            v := byte(0, mload(add(signature, 96)))\r\n        }\r\n        return (r, s, v);\r\n    }\r\n\r\n    function verify(bytes32 _ethSignedMessage, bytes memory _signanture) public pure returns (address) {\r\n        (bytes32 r, bytes32 s, uint8 v) = splitSignature(_signanture);\r\n        return ecrecover(_ethSignedMessage, v, r, s);\r\n    }\r\n\r\n}\r\n",
  "sourcePath": "D:\\Clouds\\Google Drive\\GIT\\Clicker-Bear-Token-DApp-Ethereum\\contracts\\payment.channel\\Channel.sol",
  "compiler": {
    "name": "solc",
    "version": "0.8.11+commit.d7f03943.Emscripten.clang"
  },
  "schemaVersion": "3.4.4",
  "updatedAt": "2022-02-27T15:16:37.224Z",
  "networkType": "ethereum",
  "devdoc": {
    "kind": "dev",
    "methods": {},
    "version": 1
  },
  "userdoc": {
    "kind": "user",
    "methods": {},
    "version": 1
  }
}