{
  "contractName": "PaymentChannel",
  "abi": [
    {
      "inputs": [
        {
          "internalType": "address",
          "name": "_owner",
          "type": "address"
        }
      ],
      "stateMutability": "nonpayable",
      "type": "constructor"
    },
    {
      "anonymous": false,
      "inputs": [
        {
          "indexed": true,
          "internalType": "address",
          "name": "owner",
          "type": "address"
        },
        {
          "indexed": true,
          "internalType": "address[]",
          "name": "validators",
          "type": "address[]"
        }
      ],
      "name": "ReplacementValidators",
      "type": "event"
    },
    {
      "anonymous": false,
      "inputs": [
        {
          "indexed": true,
          "internalType": "address",
          "name": "player",
          "type": "address"
        },
        {
          "indexed": false,
          "internalType": "uint256",
          "name": "payment",
          "type": "uint256"
        },
        {
          "indexed": false,
          "internalType": "uint256",
          "name": "nonce",
          "type": "uint256"
        },
        {
          "indexed": true,
          "internalType": "bytes",
          "name": "sig",
          "type": "bytes"
        }
      ],
      "name": "Withdrawal",
      "type": "event"
    },
    {
      "inputs": [
        {
          "internalType": "uint256",
          "name": "",
          "type": "uint256"
        }
      ],
      "name": "_usedNonces",
      "outputs": [
        {
          "internalType": "bool",
          "name": "",
          "type": "bool"
        }
      ],
      "stateMutability": "view",
      "type": "function",
      "constant": true
    },
    {
      "inputs": [
        {
          "internalType": "uint256",
          "name": "",
          "type": "uint256"
        }
      ],
      "name": "_validators",
      "outputs": [
        {
          "internalType": "address",
          "name": "",
          "type": "address"
        }
      ],
      "stateMutability": "view",
      "type": "function",
      "constant": true
    },
    {
      "inputs": [],
      "name": "connectedToken",
      "outputs": [
        {
          "internalType": "address",
          "name": "",
          "type": "address"
        }
      ],
      "stateMutability": "view",
      "type": "function",
      "constant": true
    },
    {
      "inputs": [],
      "name": "owner",
      "outputs": [
        {
          "internalType": "address",
          "name": "",
          "type": "address"
        }
      ],
      "stateMutability": "view",
      "type": "function",
      "constant": true
    },
    {
      "inputs": [
        {
          "internalType": "address[]",
          "name": "validators",
          "type": "address[]"
        }
      ],
      "name": "replaceValidators",
      "outputs": [],
      "stateMutability": "nonpayable",
      "type": "function"
    },
    {
      "inputs": [
        {
          "internalType": "address",
          "name": "token",
          "type": "address"
        }
      ],
      "name": "connectToken",
      "outputs": [],
      "stateMutability": "nonpayable",
      "type": "function"
    },
    {
      "inputs": [],
      "name": "getValidators",
      "outputs": [
        {
          "internalType": "address[]",
          "name": "",
          "type": "address[]"
        }
      ],
      "stateMutability": "view",
      "type": "function",
      "constant": true
    },
    {
      "inputs": [
        {
          "internalType": "bytes32",
          "name": "message",
          "type": "bytes32"
        },
        {
          "internalType": "bytes",
          "name": "sig",
          "type": "bytes"
        }
      ],
      "name": "validate",
      "outputs": [
        {
          "internalType": "bool",
          "name": "genuine",
          "type": "bool"
        }
      ],
      "stateMutability": "view",
      "type": "function",
      "constant": true
    },
    {
      "inputs": [
        {
          "internalType": "address",
          "name": "_reciever",
          "type": "address"
        },
        {
          "internalType": "uint256",
          "name": "payment",
          "type": "uint256"
        },
        {
          "internalType": "uint256",
          "name": "nonce",
          "type": "uint256"
        },
        {
          "internalType": "bytes",
          "name": "sig",
          "type": "bytes"
        }
      ],
      "name": "claimPayment",
      "outputs": [],
      "stateMutability": "nonpayable",
      "type": "function"
    },
    {
      "inputs": [
        {
          "internalType": "bytes32",
          "name": "_message",
          "type": "bytes32"
        }
      ],
      "name": "getEthSignedHash",
      "outputs": [
        {
          "internalType": "bytes32",
          "name": "",
          "type": "bytes32"
        }
      ],
      "stateMutability": "pure",
      "type": "function",
      "constant": true
    },
    {
      "inputs": [
        {
          "internalType": "bytes",
          "name": "signature",
          "type": "bytes"
        }
      ],
      "name": "splitSignature",
      "outputs": [
        {
          "internalType": "bytes32",
          "name": "r",
          "type": "bytes32"
        },
        {
          "internalType": "bytes32",
          "name": "s",
          "type": "bytes32"
        },
        {
          "internalType": "uint8",
          "name": "v",
          "type": "uint8"
        }
      ],
      "stateMutability": "pure",
      "type": "function",
      "constant": true
    },
    {
      "inputs": [
        {
          "internalType": "bytes32",
          "name": "_ethSignedMessage",
          "type": "bytes32"
        },
        {
          "internalType": "bytes",
          "name": "_signanture",
          "type": "bytes"
        }
      ],
      "name": "verify",
      "outputs": [
        {
          "internalType": "address",
          "name": "",
          "type": "address"
        }
      ],
      "stateMutability": "pure",
      "type": "function",
      "constant": true
    }
  ],
  "bytecode": "0x60806040523480156200001157600080fd5b5060405162001874380380620018748339818101604052810190620000379190620000e9565b80600460006101000a81548173ffffffffffffffffffffffffffffffffffffffff021916908373ffffffffffffffffffffffffffffffffffffffff160217905550506200011b565b600080fd5b600073ffffffffffffffffffffffffffffffffffffffff82169050919050565b6000620000b18262000084565b9050919050565b620000c381620000a4565b8114620000cf57600080fd5b50565b600081519050620000e381620000b8565b92915050565b6000602082840312156200010257620001016200007f565b5b60006200011284828501620000d2565b91505092915050565b611749806200012b6000396000f3fe608060405234801561001057600080fd5b50600436106100b45760003560e01c80638da5cb5b116100715780638da5cb5b146101b35780638e8a87ef146101d157806399413b4e146101ed578063a7bb580314610209578063b7ab4db51461023b578063f90ecacc14610259576100b4565b80630a8a4914146100b9578063258ae582146100d75780632964225f146101075780632f4ea5ea14610137578063410b9c051461016757806365a8613c14610183575b600080fd5b6100c1610289565b6040516100ce9190610ac2565b60405180910390f35b6100f160048036038101906100ec9190610c6d565b6102af565b6040516100fe9190610ac2565b60405180910390f35b610121600480360381019061011c9190610cff565b61031e565b60405161012e9190610d47565b60405180910390f35b610151600480360381019061014c9190610d62565b61033e565b60405161015e9190610d9e565b60405180910390f35b610181600480360381019061017c9190610de5565b61036e565b005b61019d60048036038101906101989190610c6d565b6105ab565b6040516101aa9190610d47565b60405180910390f35b6101bb610667565b6040516101c89190610ac2565b60405180910390f35b6101eb60048036038101906101e69190610f30565b61068d565b005b61020760048036038101906102029190610f79565b610790565b005b610223600480360381019061021e9190610fa6565b6108a5565b6040516102329392919061100b565b60405180910390f35b61024361090d565b6040516102509190611100565b60405180910390f35b610273600480360381019061026e9190610cff565b61099b565b6040516102809190610ac2565b60405180910390f35b600360009054906101000a900473ffffffffffffffffffffffffffffffffffffffff1681565b6000806000806102be856108a5565b925092509250600186828585604051600081526020016040526040516102e79493929190611122565b6020604051602081039080840390855afa158015610309573d6000803e3d6000fd5b50505060206040510351935050505092915050565b60006020528060005260406000206000915054906101000a900460ff1681565b60008160405160200161035191906111df565b604051602081830303815290604052805190602001209050919050565b60008083815260200190815260200160002060009054906101000a900460ff16156103ce576040517f08c379a00000000000000000000000000000000000000000000000000000000081526004016103c590611262565b60405180910390fd5b600160008084815260200190815260200160002060006101000a81548160ff021916908315150217905550600061042e858585604051602001610413939291906112eb565b6040516020818303038152906040528051906020012061033e565b905061043a81836105ab565b610479576040517f08c379a000000000000000000000000000000000000000000000000000000000815260040161047090611374565b60405180910390fd5b600260009054906101000a900473ffffffffffffffffffffffffffffffffffffffff1673ffffffffffffffffffffffffffffffffffffffff166323b872dd600460009054906101000a900473ffffffffffffffffffffffffffffffffffffffff1687876040518463ffffffff1660e01b81526004016104fa939291906113a3565b6020604051808303816000875af1158015610519573d6000803e3d6000fd5b505050506040513d601f19601f8201168201806040525081019061053d9190611406565b508160405161054c91906114ad565b60405180910390208573ffffffffffffffffffffffffffffffffffffffff167f439e97f6510420d1c0a80ded1e38ef053e9f7fdc940d11c9b6485a8a4ff1087d868660405161059c9291906114c4565b60405180910390a35050505050565b6000806105b884846102af565b905060005b60018054905081101561065a57600181815481106105de576105dd6114ed565b5b9060005260206000200160009054906101000a900473ffffffffffffffffffffffffffffffffffffffff1673ffffffffffffffffffffffffffffffffffffffff168273ffffffffffffffffffffffffffffffffffffffff16141561064757600192505050610661565b80806106529061154b565b9150506105bd565b5060009150505b92915050565b600460009054906101000a900473ffffffffffffffffffffffffffffffffffffffff1681565b600460009054906101000a900473ffffffffffffffffffffffffffffffffffffffff1673ffffffffffffffffffffffffffffffffffffffff163373ffffffffffffffffffffffffffffffffffffffff161461071d576040517f08c379a0000000000000000000000000000000000000000000000000000000008152600401610714906115e0565b60405180910390fd5b80600190805190602001906107339291906109da565b50806040516107429190611690565b60405180910390203373ffffffffffffffffffffffffffffffffffffffff167ffcf631ce6c9189d727fe8780772e788a9fa14032b34ecfbae9af10aec88b629860405160405180910390a350565b600460009054906101000a900473ffffffffffffffffffffffffffffffffffffffff1673ffffffffffffffffffffffffffffffffffffffff163373ffffffffffffffffffffffffffffffffffffffff1614610820576040517f08c379a0000000000000000000000000000000000000000000000000000000008152600401610817906115e0565b60405180910390fd5b80600260006101000a81548173ffffffffffffffffffffffffffffffffffffffff021916908373ffffffffffffffffffffffffffffffffffffffff16021790555080600360006101000a81548173ffffffffffffffffffffffffffffffffffffffff021916908373ffffffffffffffffffffffffffffffffffffffff16021790555050565b600080600060418451146108ee576040517f08c379a00000000000000000000000000000000000000000000000000000000081526004016108e5906116f3565b60405180910390fd5b6020840151925060408401519150606084015160001a90509193909250565b6060600180548060200260200160405190810160405280929190818152602001828054801561099157602002820191906000526020600020905b8160009054906101000a900473ffffffffffffffffffffffffffffffffffffffff1673ffffffffffffffffffffffffffffffffffffffff1681526020019060010190808311610947575b5050505050905090565b600181815481106109ab57600080fd5b906000526020600020016000915054906101000a900473ffffffffffffffffffffffffffffffffffffffff1681565b828054828255906000526020600020908101928215610a53579160200282015b82811115610a525782518260006101000a81548173ffffffffffffffffffffffffffffffffffffffff021916908373ffffffffffffffffffffffffffffffffffffffff160217905550916020019190600101906109fa565b5b509050610a609190610a64565b5090565b5b80821115610a7d576000816000905550600101610a65565b5090565b600073ffffffffffffffffffffffffffffffffffffffff82169050919050565b6000610aac82610a81565b9050919050565b610abc81610aa1565b82525050565b6000602082019050610ad76000830184610ab3565b92915050565b6000604051905090565b600080fd5b600080fd5b6000819050919050565b610b0481610af1565b8114610b0f57600080fd5b50565b600081359050610b2181610afb565b92915050565b600080fd5b600080fd5b6000601f19601f8301169050919050565b7f4e487b7100000000000000000000000000000000000000000000000000000000600052604160045260246000fd5b610b7a82610b31565b810181811067ffffffffffffffff82111715610b9957610b98610b42565b5b80604052505050565b6000610bac610add565b9050610bb88282610b71565b919050565b600067ffffffffffffffff821115610bd857610bd7610b42565b5b610be182610b31565b9050602081019050919050565b82818337600083830152505050565b6000610c10610c0b84610bbd565b610ba2565b905082815260208101848484011115610c2c57610c2b610b2c565b5b610c37848285610bee565b509392505050565b600082601f830112610c5457610c53610b27565b5b8135610c64848260208601610bfd565b91505092915050565b60008060408385031215610c8457610c83610ae7565b5b6000610c9285828601610b12565b925050602083013567ffffffffffffffff811115610cb357610cb2610aec565b5b610cbf85828601610c3f565b9150509250929050565b6000819050919050565b610cdc81610cc9565b8114610ce757600080fd5b50565b600081359050610cf981610cd3565b92915050565b600060208284031215610d1557610d14610ae7565b5b6000610d2384828501610cea565b91505092915050565b60008115159050919050565b610d4181610d2c565b82525050565b6000602082019050610d5c6000830184610d38565b92915050565b600060208284031215610d7857610d77610ae7565b5b6000610d8684828501610b12565b91505092915050565b610d9881610af1565b82525050565b6000602082019050610db36000830184610d8f565b92915050565b610dc281610aa1565b8114610dcd57600080fd5b50565b600081359050610ddf81610db9565b92915050565b60008060008060808587031215610dff57610dfe610ae7565b5b6000610e0d87828801610dd0565b9450506020610e1e87828801610cea565b9350506040610e2f87828801610cea565b925050606085013567ffffffffffffffff811115610e5057610e4f610aec565b5b610e5c87828801610c3f565b91505092959194509250565b600067ffffffffffffffff821115610e8357610e82610b42565b5b602082029050602081019050919050565b600080fd5b6000610eac610ea784610e68565b610ba2565b90508083825260208201905060208402830185811115610ecf57610ece610e94565b5b835b81811015610ef85780610ee48882610dd0565b845260208401935050602081019050610ed1565b5050509392505050565b600082601f830112610f1757610f16610b27565b5b8135610f27848260208601610e99565b91505092915050565b600060208284031215610f4657610f45610ae7565b5b600082013567ffffffffffffffff811115610f6457610f63610aec565b5b610f7084828501610f02565b91505092915050565b600060208284031215610f8f57610f8e610ae7565b5b6000610f9d84828501610dd0565b91505092915050565b600060208284031215610fbc57610fbb610ae7565b5b600082013567ffffffffffffffff811115610fda57610fd9610aec565b5b610fe684828501610c3f565b91505092915050565b600060ff82169050919050565b61100581610fef565b82525050565b60006060820190506110206000830186610d8f565b61102d6020830185610d8f565b61103a6040830184610ffc565b949350505050565b600081519050919050565b600082825260208201905092915050565b6000819050602082019050919050565b61107781610aa1565b82525050565b6000611089838361106e565b60208301905092915050565b6000602082019050919050565b60006110ad82611042565b6110b7818561104d565b93506110c28361105e565b8060005b838110156110f35781516110da888261107d565b97506110e583611095565b9250506001810190506110c6565b5085935050505092915050565b6000602082019050818103600083015261111a81846110a2565b905092915050565b60006080820190506111376000830187610d8f565b6111446020830186610ffc565b6111516040830185610d8f565b61115e6060830184610d8f565b95945050505050565b600081905092915050565b7f19457468657265756d205369676e6564204d6573736167653a0a333200000000600082015250565b60006111a8601c83611167565b91506111b382611172565b601c82019050919050565b6000819050919050565b6111d96111d482610af1565b6111be565b82525050565b60006111ea8261119b565b91506111f682846111c8565b60208201915081905092915050565b600082825260208201905092915050565b7f4e4f4e43455f49535f414c52454144595f555345440000000000000000000000600082015250565b600061124c601583611205565b915061125782611216565b602082019050919050565b6000602082019050818103600083015261127b8161123f565b9050919050565b60008160601b9050919050565b600061129a82611282565b9050919050565b60006112ac8261128f565b9050919050565b6112c46112bf82610aa1565b6112a1565b82525050565b6000819050919050565b6112e56112e082610cc9565b6112ca565b82525050565b60006112f782866112b3565b60148201915061130782856112d4565b60208201915061131782846112d4565b602082019150819050949350505050565b7f4449474954414c5f5349474e41545552455f49535f4e4f545f47454e55494e45600082015250565b600061135e602083611205565b915061136982611328565b602082019050919050565b6000602082019050818103600083015261138d81611351565b9050919050565b61139d81610cc9565b82525050565b60006060820190506113b86000830186610ab3565b6113c56020830185610ab3565b6113d26040830184611394565b949350505050565b6113e381610d2c565b81146113ee57600080fd5b50565b600081519050611400816113da565b92915050565b60006020828403121561141c5761141b610ae7565b5b600061142a848285016113f1565b91505092915050565b600081519050919050565b600081905092915050565b60005b8381101561146757808201518184015260208101905061144c565b83811115611476576000848401525b50505050565b600061148782611433565b611491818561143e565b93506114a1818560208601611449565b80840191505092915050565b60006114b9828461147c565b915081905092915050565b60006040820190506114d96000830185611394565b6114e66020830184611394565b9392505050565b7f4e487b7100000000000000000000000000000000000000000000000000000000600052603260045260246000fd5b7f4e487b7100000000000000000000000000000000000000000000000000000000600052601160045260246000fd5b600061155682610cc9565b91507fffffffffffffffffffffffffffffffffffffffffffffffffffffffffffffffff8214156115895761158861151c565b5b600182019050919050565b7f53454e4445525f49535f4e4f545f4f574e455200000000000000000000000000600082015250565b60006115ca601383611205565b91506115d582611594565b602082019050919050565b600060208201905081810360008301526115f9816115bd565b9050919050565b600081905092915050565b61161481610aa1565b82525050565b6000611626838361160b565b60208301905092915050565b600061163d82611042565b6116478185611600565b93506116528361105e565b8060005b8381101561168357815161166a888261161a565b975061167583611095565b925050600181019050611656565b5085935050505092915050565b600061169c8284611632565b915081905092915050565b7f494e56414c49445f5349474e41545552455f4c454e4754480000000000000000600082015250565b60006116dd601883611205565b91506116e8826116a7565b602082019050919050565b6000602082019050818103600083015261170c816116d0565b905091905056fea2646970667358221220a13298b2d53c72ec17c5b91aba56dedae2360da8ad2699adbfef1463819c486064736f6c634300080b0033",
  "immutableReferences": {},
  "source": "//SPDX-License-Identifier: MIT\r\n\r\npragma solidity ^0.8.10;\r\n\r\ninterface IBearToken {\r\n    function transferFrom(address _from, address _to, uint256 _value) external returns (bool success);\r\n}\r\n\r\ncontract PaymentChannel {\r\n\r\n    event ReplacementValidators(address indexed owner, address[] indexed validators);\r\n    event Withdrawal(address indexed player, uint256 payment, uint256 nonce, bytes indexed sig);\r\n\r\n    mapping(uint256 => bool) public _usedNonces;\r\n    address[] public _validators;\r\n    IBearToken private _token;\r\n    address public connectedToken;\r\n    address public owner;\r\n\r\n    modifier onlyOwner() {\r\n        require(msg.sender == owner, \"SENDER_IS_NOT_OWNER\");\r\n        _;\r\n    }\r\n\r\n    constructor(address _owner) {\r\n        owner = _owner;\r\n    }\r\n\r\n    function replaceValidators(address[] memory validators) public onlyOwner {\r\n        _validators = validators;\r\n        emit ReplacementValidators(msg.sender, validators);\r\n    }\r\n\r\n    function connectToken(address token) public onlyOwner {\r\n        _token = IBearToken(token);\r\n        connectedToken = token;\r\n    }\r\n\r\n    function getValidators() public view returns(address[] memory) {\r\n        return _validators;\r\n    }\r\n\r\n    function validate(bytes32 message, bytes memory sig) public view returns (bool genuine) {\r\n        address validator = verify(message, sig);\r\n\r\n        for (uint i = 0; i < _validators.length; i++) {\r\n            if (validator == _validators[i]) {\r\n                return true;\r\n            }\r\n        }\r\n        return false;\r\n    }\r\n\r\n    function claimPayment(address _reciever, uint256 payment, uint256 nonce, bytes memory sig) public {\r\n        require(!_usedNonces[nonce], \"NONCE_IS_ALREADY_USED\");\r\n        _usedNonces[nonce] = true;\r\n        bytes32 message = getEthSignedHash(keccak256(abi.encodePacked(_reciever, payment, nonce)));\r\n        require(validate(message, sig), \"DIGITAL_SIGNATURE_IS_NOT_GENUINE\");\r\n        _token.transferFrom(owner, _reciever, payment);\r\n        emit Withdrawal(_reciever, payment, nonce, sig);\r\n    }\r\n\r\n    function getEthSignedHash(bytes32 _message) public pure returns (bytes32) {\r\n        return keccak256(abi.encodePacked(\"\\x19Ethereum Signed Message:\\n32\", _message));\r\n    }\r\n\r\n    function splitSignature(bytes memory signature) public pure returns (bytes32 r, bytes32 s, uint8 v) {\r\n        require(signature.length == 65, \"INVALID_SIGNATURE_LENGTH\");\r\n        assembly {\r\n            r := mload(add(signature, 32))\r\n            s := mload(add(signature, 64))\r\n            v := byte(0, mload(add(signature, 96)))\r\n        }\r\n        return (r, s, v);\r\n    }\r\n\r\n    function verify(bytes32 _ethSignedMessage, bytes memory _signanture) public pure returns (address) {\r\n        (bytes32 r, bytes32 s, uint8 v) = splitSignature(_signanture);\r\n        return ecrecover(_ethSignedMessage, v, r, s);\r\n    }\r\n\r\n}\r\n",
  "sourcePath": "D:\\Clouds\\Google Drive\\GIT\\Clicker-Bear-Token-DApp-Ethereum\\contracts\\payment.channel\\Channel.sol",
  "compiler": {
    "name": "solc",
    "version": "0.8.11+commit.d7f03943.Emscripten.clang"
  },
  "schemaVersion": "3.4.4",
  "updatedAt": "2022-02-27T07:29:48.927Z",
  "networkType": "ethereum",
  "devdoc": {
    "kind": "dev",
    "methods": {},
    "version": 1
  },
  "userdoc": {
    "kind": "user",
    "methods": {},
    "version": 1
  }
}