{
  "contractName": "PaymentChannel",
  "abi": [
    {
      "inputs": [
        {
          "internalType": "address",
          "name": "_owner",
          "type": "address"
        }
      ],
      "stateMutability": "nonpayable",
      "type": "constructor"
    },
    {
      "anonymous": false,
      "inputs": [
        {
          "indexed": true,
          "internalType": "address",
          "name": "owner",
          "type": "address"
        },
        {
          "indexed": true,
          "internalType": "address[]",
          "name": "validators",
          "type": "address[]"
        }
      ],
      "name": "ReplacementValidators",
      "type": "event"
    },
    {
      "anonymous": false,
      "inputs": [
        {
          "indexed": true,
          "internalType": "address",
          "name": "player",
          "type": "address"
        },
        {
          "indexed": false,
          "internalType": "uint256",
          "name": "payment",
          "type": "uint256"
        },
        {
          "indexed": false,
          "internalType": "uint256",
          "name": "nonce",
          "type": "uint256"
        },
        {
          "indexed": true,
          "internalType": "bytes",
          "name": "sig",
          "type": "bytes"
        }
      ],
      "name": "Withdrawal",
      "type": "event"
    },
    {
      "inputs": [
        {
          "internalType": "address[]",
          "name": "validators",
          "type": "address[]"
        }
      ],
      "name": "replaceValidators",
      "outputs": [],
      "stateMutability": "nonpayable",
      "type": "function"
    },
    {
      "inputs": [
        {
          "internalType": "address",
          "name": "token",
          "type": "address"
        }
      ],
      "name": "connectToken",
      "outputs": [],
      "stateMutability": "nonpayable",
      "type": "function"
    },
    {
      "inputs": [],
      "name": "getValidators",
      "outputs": [
        {
          "internalType": "address[]",
          "name": "",
          "type": "address[]"
        }
      ],
      "stateMutability": "view",
      "type": "function",
      "constant": true
    },
    {
      "inputs": [
        {
          "internalType": "bytes32",
          "name": "message",
          "type": "bytes32"
        },
        {
          "internalType": "bytes",
          "name": "sig",
          "type": "bytes"
        }
      ],
      "name": "validate",
      "outputs": [
        {
          "internalType": "bool",
          "name": "genuine",
          "type": "bool"
        }
      ],
      "stateMutability": "view",
      "type": "function",
      "constant": true
    },
    {
      "inputs": [
        {
          "internalType": "address",
          "name": "_reciever",
          "type": "address"
        },
        {
          "internalType": "uint256",
          "name": "payment",
          "type": "uint256"
        },
        {
          "internalType": "uint256",
          "name": "nonce",
          "type": "uint256"
        },
        {
          "internalType": "bytes",
          "name": "sig",
          "type": "bytes"
        }
      ],
      "name": "claimPayment",
      "outputs": [],
      "stateMutability": "nonpayable",
      "type": "function"
    },
    {
      "inputs": [
        {
          "internalType": "bytes32",
          "name": "_message",
          "type": "bytes32"
        }
      ],
      "name": "getEthSignedHash",
      "outputs": [
        {
          "internalType": "bytes32",
          "name": "",
          "type": "bytes32"
        }
      ],
      "stateMutability": "pure",
      "type": "function",
      "constant": true
    },
    {
      "inputs": [
        {
          "internalType": "bytes",
          "name": "signature",
          "type": "bytes"
        }
      ],
      "name": "splitSignature",
      "outputs": [
        {
          "internalType": "bytes32",
          "name": "r",
          "type": "bytes32"
        },
        {
          "internalType": "bytes32",
          "name": "s",
          "type": "bytes32"
        },
        {
          "internalType": "uint8",
          "name": "v",
          "type": "uint8"
        }
      ],
      "stateMutability": "pure",
      "type": "function",
      "constant": true
    },
    {
      "inputs": [
        {
          "internalType": "bytes32",
          "name": "_ethSignedMessage",
          "type": "bytes32"
        },
        {
          "internalType": "bytes",
          "name": "_signanture",
          "type": "bytes"
        }
      ],
      "name": "verify",
      "outputs": [
        {
          "internalType": "address",
          "name": "",
          "type": "address"
        }
      ],
      "stateMutability": "pure",
      "type": "function",
      "constant": true
    }
  ],
  "bytecode": "0x60806040523480156200001157600080fd5b5060405162001693380380620016938339818101604052810190620000379190620000e9565b80600360006101000a81548173ffffffffffffffffffffffffffffffffffffffff021916908373ffffffffffffffffffffffffffffffffffffffff160217905550506200011b565b600080fd5b600073ffffffffffffffffffffffffffffffffffffffff82169050919050565b6000620000b18262000084565b9050919050565b620000c381620000a4565b8114620000cf57600080fd5b50565b600081519050620000e381620000b8565b92915050565b6000602082840312156200010257620001016200007f565b5b60006200011284828501620000d2565b91505092915050565b611568806200012b6000396000f3fe608060405234801561001057600080fd5b50600436106100885760003560e01c80638e8a87ef1161005b5780638e8a87ef1461013957806399413b4e14610155578063a7bb580314610171578063b7ab4db5146101a357610088565b8063258ae5821461008d5780632f4ea5ea146100bd578063410b9c05146100ed57806365a8613c14610109575b600080fd5b6100a760048036038101906100a29190610a5d565b6101c1565b6040516100b49190610afa565b60405180910390f35b6100d760048036038101906100d29190610b15565b610230565b6040516100e49190610b51565b60405180910390f35b61010760048036038101906101029190610bce565b610260565b005b610123600480360381019061011e9190610a5d565b61049d565b6040516101309190610c6c565b60405180910390f35b610153600480360381019061014e9190610d4f565b610559565b005b61016f600480360381019061016a9190610d98565b61065c565b005b61018b60048036038101906101869190610dc5565b610730565b60405161019a93929190610e2a565b60405180910390f35b6101ab610798565b6040516101b89190610f1f565b60405180910390f35b6000806000806101d085610730565b925092509250600186828585604051600081526020016040526040516101f99493929190610f41565b6020604051602081039080840390855afa15801561021b573d6000803e3d6000fd5b50505060206040510351935050505092915050565b6000816040516020016102439190610ffe565b604051602081830303815290604052805190602001209050919050565b60008083815260200190815260200160002060009054906101000a900460ff16156102c0576040517f08c379a00000000000000000000000000000000000000000000000000000000081526004016102b790611081565b60405180910390fd5b600160008084815260200190815260200160002060006101000a81548160ff02191690831515021790555060006103208585856040516020016103059392919061110a565b60405160208183030381529060405280519060200120610230565b905061032c818361049d565b61036b576040517f08c379a000000000000000000000000000000000000000000000000000000000815260040161036290611193565b60405180910390fd5b600260009054906101000a900473ffffffffffffffffffffffffffffffffffffffff1673ffffffffffffffffffffffffffffffffffffffff166323b872dd600360009054906101000a900473ffffffffffffffffffffffffffffffffffffffff1687876040518463ffffffff1660e01b81526004016103ec939291906111c2565b6020604051808303816000875af115801561040b573d6000803e3d6000fd5b505050506040513d601f19601f8201168201806040525081019061042f9190611225565b508160405161043e91906112cc565b60405180910390208573ffffffffffffffffffffffffffffffffffffffff167f439e97f6510420d1c0a80ded1e38ef053e9f7fdc940d11c9b6485a8a4ff1087d868660405161048e9291906112e3565b60405180910390a35050505050565b6000806104aa84846101c1565b905060005b60018054905081101561054c57600181815481106104d0576104cf61130c565b5b9060005260206000200160009054906101000a900473ffffffffffffffffffffffffffffffffffffffff1673ffffffffffffffffffffffffffffffffffffffff168273ffffffffffffffffffffffffffffffffffffffff16141561053957600192505050610553565b80806105449061136a565b9150506104af565b5060009150505b92915050565b600360009054906101000a900473ffffffffffffffffffffffffffffffffffffffff1673ffffffffffffffffffffffffffffffffffffffff163373ffffffffffffffffffffffffffffffffffffffff16146105e9576040517f08c379a00000000000000000000000000000000000000000000000000000000081526004016105e0906113ff565b60405180910390fd5b80600190805190602001906105ff929190610826565b508060405161060e91906114af565b60405180910390203373ffffffffffffffffffffffffffffffffffffffff167ffcf631ce6c9189d727fe8780772e788a9fa14032b34ecfbae9af10aec88b629860405160405180910390a350565b600360009054906101000a900473ffffffffffffffffffffffffffffffffffffffff1673ffffffffffffffffffffffffffffffffffffffff163373ffffffffffffffffffffffffffffffffffffffff16146106ec576040517f08c379a00000000000000000000000000000000000000000000000000000000081526004016106e3906113ff565b60405180910390fd5b80600260006101000a81548173ffffffffffffffffffffffffffffffffffffffff021916908373ffffffffffffffffffffffffffffffffffffffff16021790555050565b60008060006041845114610779576040517f08c379a000000000000000000000000000000000000000000000000000000000815260040161077090611512565b60405180910390fd5b6020840151925060408401519150606084015160001a90509193909250565b6060600180548060200260200160405190810160405280929190818152602001828054801561081c57602002820191906000526020600020905b8160009054906101000a900473ffffffffffffffffffffffffffffffffffffffff1673ffffffffffffffffffffffffffffffffffffffff16815260200190600101908083116107d2575b5050505050905090565b82805482825590600052602060002090810192821561089f579160200282015b8281111561089e5782518260006101000a81548173ffffffffffffffffffffffffffffffffffffffff021916908373ffffffffffffffffffffffffffffffffffffffff16021790555091602001919060010190610846565b5b5090506108ac91906108b0565b5090565b5b808211156108c95760008160009055506001016108b1565b5090565b6000604051905090565b600080fd5b600080fd5b6000819050919050565b6108f4816108e1565b81146108ff57600080fd5b50565b600081359050610911816108eb565b92915050565b600080fd5b600080fd5b6000601f19601f8301169050919050565b7f4e487b7100000000000000000000000000000000000000000000000000000000600052604160045260246000fd5b61096a82610921565b810181811067ffffffffffffffff8211171561098957610988610932565b5b80604052505050565b600061099c6108cd565b90506109a88282610961565b919050565b600067ffffffffffffffff8211156109c8576109c7610932565b5b6109d182610921565b9050602081019050919050565b82818337600083830152505050565b6000610a006109fb846109ad565b610992565b905082815260208101848484011115610a1c57610a1b61091c565b5b610a278482856109de565b509392505050565b600082601f830112610a4457610a43610917565b5b8135610a548482602086016109ed565b91505092915050565b60008060408385031215610a7457610a736108d7565b5b6000610a8285828601610902565b925050602083013567ffffffffffffffff811115610aa357610aa26108dc565b5b610aaf85828601610a2f565b9150509250929050565b600073ffffffffffffffffffffffffffffffffffffffff82169050919050565b6000610ae482610ab9565b9050919050565b610af481610ad9565b82525050565b6000602082019050610b0f6000830184610aeb565b92915050565b600060208284031215610b2b57610b2a6108d7565b5b6000610b3984828501610902565b91505092915050565b610b4b816108e1565b82525050565b6000602082019050610b666000830184610b42565b92915050565b610b7581610ad9565b8114610b8057600080fd5b50565b600081359050610b9281610b6c565b92915050565b6000819050919050565b610bab81610b98565b8114610bb657600080fd5b50565b600081359050610bc881610ba2565b92915050565b60008060008060808587031215610be857610be76108d7565b5b6000610bf687828801610b83565b9450506020610c0787828801610bb9565b9350506040610c1887828801610bb9565b925050606085013567ffffffffffffffff811115610c3957610c386108dc565b5b610c4587828801610a2f565b91505092959194509250565b60008115159050919050565b610c6681610c51565b82525050565b6000602082019050610c816000830184610c5d565b92915050565b600067ffffffffffffffff821115610ca257610ca1610932565b5b602082029050602081019050919050565b600080fd5b6000610ccb610cc684610c87565b610992565b90508083825260208201905060208402830185811115610cee57610ced610cb3565b5b835b81811015610d175780610d038882610b83565b845260208401935050602081019050610cf0565b5050509392505050565b600082601f830112610d3657610d35610917565b5b8135610d46848260208601610cb8565b91505092915050565b600060208284031215610d6557610d646108d7565b5b600082013567ffffffffffffffff811115610d8357610d826108dc565b5b610d8f84828501610d21565b91505092915050565b600060208284031215610dae57610dad6108d7565b5b6000610dbc84828501610b83565b91505092915050565b600060208284031215610ddb57610dda6108d7565b5b600082013567ffffffffffffffff811115610df957610df86108dc565b5b610e0584828501610a2f565b91505092915050565b600060ff82169050919050565b610e2481610e0e565b82525050565b6000606082019050610e3f6000830186610b42565b610e4c6020830185610b42565b610e596040830184610e1b565b949350505050565b600081519050919050565b600082825260208201905092915050565b6000819050602082019050919050565b610e9681610ad9565b82525050565b6000610ea88383610e8d565b60208301905092915050565b6000602082019050919050565b6000610ecc82610e61565b610ed68185610e6c565b9350610ee183610e7d565b8060005b83811015610f12578151610ef98882610e9c565b9750610f0483610eb4565b925050600181019050610ee5565b5085935050505092915050565b60006020820190508181036000830152610f398184610ec1565b905092915050565b6000608082019050610f566000830187610b42565b610f636020830186610e1b565b610f706040830185610b42565b610f7d6060830184610b42565b95945050505050565b600081905092915050565b7f19457468657265756d205369676e6564204d6573736167653a0a333200000000600082015250565b6000610fc7601c83610f86565b9150610fd282610f91565b601c82019050919050565b6000819050919050565b610ff8610ff3826108e1565b610fdd565b82525050565b600061100982610fba565b91506110158284610fe7565b60208201915081905092915050565b600082825260208201905092915050565b7f4e4f4e43455f49535f414c52454144595f555345440000000000000000000000600082015250565b600061106b601583611024565b915061107682611035565b602082019050919050565b6000602082019050818103600083015261109a8161105e565b9050919050565b60008160601b9050919050565b60006110b9826110a1565b9050919050565b60006110cb826110ae565b9050919050565b6110e36110de82610ad9565b6110c0565b82525050565b6000819050919050565b6111046110ff82610b98565b6110e9565b82525050565b600061111682866110d2565b60148201915061112682856110f3565b60208201915061113682846110f3565b602082019150819050949350505050565b7f4449474954414c5f5349474e41545552455f49535f4e4f545f47454e55494e45600082015250565b600061117d602083611024565b915061118882611147565b602082019050919050565b600060208201905081810360008301526111ac81611170565b9050919050565b6111bc81610b98565b82525050565b60006060820190506111d76000830186610aeb565b6111e46020830185610aeb565b6111f160408301846111b3565b949350505050565b61120281610c51565b811461120d57600080fd5b50565b60008151905061121f816111f9565b92915050565b60006020828403121561123b5761123a6108d7565b5b600061124984828501611210565b91505092915050565b600081519050919050565b600081905092915050565b60005b8381101561128657808201518184015260208101905061126b565b83811115611295576000848401525b50505050565b60006112a682611252565b6112b0818561125d565b93506112c0818560208601611268565b80840191505092915050565b60006112d8828461129b565b915081905092915050565b60006040820190506112f860008301856111b3565b61130560208301846111b3565b9392505050565b7f4e487b7100000000000000000000000000000000000000000000000000000000600052603260045260246000fd5b7f4e487b7100000000000000000000000000000000000000000000000000000000600052601160045260246000fd5b600061137582610b98565b91507fffffffffffffffffffffffffffffffffffffffffffffffffffffffffffffffff8214156113a8576113a761133b565b5b600182019050919050565b7f53454e4445525f49535f4e4f545f4f574e455200000000000000000000000000600082015250565b60006113e9601383611024565b91506113f4826113b3565b602082019050919050565b60006020820190508181036000830152611418816113dc565b9050919050565b600081905092915050565b61143381610ad9565b82525050565b6000611445838361142a565b60208301905092915050565b600061145c82610e61565b611466818561141f565b935061147183610e7d565b8060005b838110156114a25781516114898882611439565b975061149483610eb4565b925050600181019050611475565b5085935050505092915050565b60006114bb8284611451565b915081905092915050565b7f494e56414c49445f5349474e41545552455f4c454e4754480000000000000000600082015250565b60006114fc601883611024565b9150611507826114c6565b602082019050919050565b6000602082019050818103600083015261152b816114ef565b905091905056fea2646970667358221220426840d909e8ff2ec6612bdcf9e58d66779256cdffc5926decb5f590e993fbcd64736f6c634300080b0033",
  "immutableReferences": {},
  "source": "//SPDX-License-Identifier: MIT\r\n\r\npragma solidity ^0.8.10;\r\n\r\ninterface IBearToken {\r\n    function transferFrom(address _from, address _to, uint256 _value) external returns (bool success);\r\n}\r\n\r\ncontract PaymentChannel {\r\n\r\n    event ReplacementValidators(address indexed owner, address[] indexed validators);\r\n    event Withdrawal(address indexed player, uint256 payment, uint256 nonce, bytes indexed sig);\r\n\r\n    mapping(uint256 => bool) _usedNonces;\r\n    address[] _validators;\r\n    IBearToken _token;\r\n    address owner;\r\n\r\n    modifier onlyOwner() {\r\n        require(msg.sender == owner, \"SENDER_IS_NOT_OWNER\");\r\n        _;\r\n    }\r\n\r\n    constructor(address _owner) {\r\n        owner = _owner;\r\n    }\r\n\r\n    function replaceValidators(address[] memory validators) public onlyOwner {\r\n        _validators = validators;\r\n        emit ReplacementValidators(msg.sender, validators);\r\n    }\r\n\r\n    function connectToken(address token) public onlyOwner {\r\n        _token = IBearToken(token);\r\n    }\r\n\r\n    function getValidators() public view returns(address[] memory) {\r\n        return _validators;\r\n    }\r\n\r\n    function validate(bytes32 message, bytes memory sig) public view returns (bool genuine) {\r\n        address validator = verify(message, sig);\r\n\r\n        for (uint i = 0; i < _validators.length; i++) {\r\n            if (validator == _validators[i]) {\r\n                return true;\r\n            }\r\n        }\r\n        return false;\r\n    }\r\n\r\n    function claimPayment(address _reciever, uint256 payment, uint256 nonce, bytes memory sig) public {\r\n        require(!_usedNonces[nonce], \"NONCE_IS_ALREADY_USED\");\r\n        _usedNonces[nonce] = true;\r\n        bytes32 message = getEthSignedHash(keccak256(abi.encodePacked(_reciever, payment, nonce)));\r\n        require(validate(message, sig), \"DIGITAL_SIGNATURE_IS_NOT_GENUINE\");\r\n        _token.transferFrom(owner, _reciever, payment);\r\n        emit Withdrawal(_reciever, payment, nonce, sig);\r\n    }\r\n\r\n    function getEthSignedHash(bytes32 _message) public pure returns (bytes32) {\r\n        return keccak256(abi.encodePacked(\"\\x19Ethereum Signed Message:\\n32\", _message));\r\n    }\r\n\r\n    function splitSignature(bytes memory signature) public pure returns (bytes32 r, bytes32 s, uint8 v) {\r\n        require(signature.length == 65, \"INVALID_SIGNATURE_LENGTH\");\r\n        assembly {\r\n            r := mload(add(signature, 32))\r\n            s := mload(add(signature, 64))\r\n            v := byte(0, mload(add(signature, 96)))\r\n        }\r\n        return (r, s, v);\r\n    } \r\n\r\n    function verify(bytes32 _ethSignedMessage, bytes memory _signanture) public pure returns (address) {\r\n        (bytes32 r, bytes32 s, uint8 v) = splitSignature(_signanture);\r\n        return ecrecover(_ethSignedMessage, v, r, s);\r\n    }\r\n\r\n}",
  "sourcePath": "D:\\Clouds\\Google Drive\\GIT\\Clicker-Bear-Token-DApp-Ethereum\\contracts\\payment.channel\\Channel.sol",
  "compiler": {
    "name": "solc",
    "version": "0.8.11+commit.d7f03943.Emscripten.clang"
  },
  "schemaVersion": "3.4.4",
  "updatedAt": "2022-02-26T14:36:17.215Z",
  "networkType": "ethereum",
  "devdoc": {
    "kind": "dev",
    "methods": {},
    "version": 1
  },
  "userdoc": {
    "kind": "user",
    "methods": {},
    "version": 1
  }
}