{
  "contractName": "Token",
  "abi": [
    {
      "inputs": [
        {
          "internalType": "address",
          "name": "dapp",
          "type": "address"
        },
        {
          "internalType": "address",
          "name": "channel",
          "type": "address"
        },
        {
          "internalType": "address[]",
          "name": "owners",
          "type": "address[]"
        }
      ],
      "stateMutability": "nonpayable",
      "type": "constructor"
    },
    {
      "anonymous": false,
      "inputs": [
        {
          "indexed": true,
          "internalType": "address",
          "name": "_owner",
          "type": "address"
        },
        {
          "indexed": true,
          "internalType": "address",
          "name": "_spender",
          "type": "address"
        },
        {
          "indexed": false,
          "internalType": "uint256",
          "name": "_value",
          "type": "uint256"
        }
      ],
      "name": "Approval",
      "type": "event"
    },
    {
      "anonymous": false,
      "inputs": [
        {
          "indexed": true,
          "internalType": "address",
          "name": "_from",
          "type": "address"
        },
        {
          "indexed": true,
          "internalType": "address",
          "name": "_to",
          "type": "address"
        },
        {
          "indexed": false,
          "internalType": "uint256",
          "name": "_value",
          "type": "uint256"
        }
      ],
      "name": "Transfer",
      "type": "event"
    },
    {
      "inputs": [],
      "name": "tokenDecimals",
      "outputs": [
        {
          "internalType": "uint8",
          "name": "",
          "type": "uint8"
        }
      ],
      "stateMutability": "view",
      "type": "function"
    },
    {
      "inputs": [],
      "name": "tokenName",
      "outputs": [
        {
          "internalType": "string",
          "name": "",
          "type": "string"
        }
      ],
      "stateMutability": "view",
      "type": "function"
    },
    {
      "inputs": [],
      "name": "tokenSymbol",
      "outputs": [
        {
          "internalType": "string",
          "name": "",
          "type": "string"
        }
      ],
      "stateMutability": "view",
      "type": "function"
    },
    {
      "inputs": [],
      "name": "name",
      "outputs": [
        {
          "internalType": "string",
          "name": "",
          "type": "string"
        }
      ],
      "stateMutability": "pure",
      "type": "function"
    },
    {
      "inputs": [],
      "name": "symbol",
      "outputs": [
        {
          "internalType": "string",
          "name": "",
          "type": "string"
        }
      ],
      "stateMutability": "pure",
      "type": "function"
    },
    {
      "inputs": [],
      "name": "decimals",
      "outputs": [
        {
          "internalType": "uint8",
          "name": "",
          "type": "uint8"
        }
      ],
      "stateMutability": "pure",
      "type": "function"
    },
    {
      "inputs": [],
      "name": "totalSupply",
      "outputs": [
        {
          "internalType": "uint256",
          "name": "",
          "type": "uint256"
        }
      ],
      "stateMutability": "pure",
      "type": "function"
    },
    {
      "inputs": [
        {
          "internalType": "address",
          "name": "_owner",
          "type": "address"
        }
      ],
      "name": "balanceOf",
      "outputs": [
        {
          "internalType": "uint256",
          "name": "balance",
          "type": "uint256"
        }
      ],
      "stateMutability": "view",
      "type": "function"
    },
    {
      "inputs": [
        {
          "internalType": "address",
          "name": "_to",
          "type": "address"
        },
        {
          "internalType": "uint256",
          "name": "_value",
          "type": "uint256"
        }
      ],
      "name": "transfer",
      "outputs": [
        {
          "internalType": "bool",
          "name": "success",
          "type": "bool"
        }
      ],
      "stateMutability": "nonpayable",
      "type": "function"
    },
    {
      "inputs": [
        {
          "internalType": "address",
          "name": "_from",
          "type": "address"
        },
        {
          "internalType": "address",
          "name": "_to",
          "type": "address"
        },
        {
          "internalType": "uint256",
          "name": "_value",
          "type": "uint256"
        }
      ],
      "name": "transferFrom",
      "outputs": [
        {
          "internalType": "bool",
          "name": "success",
          "type": "bool"
        }
      ],
      "stateMutability": "nonpayable",
      "type": "function"
    },
    {
      "inputs": [
        {
          "internalType": "address",
          "name": "_spender",
          "type": "address"
        },
        {
          "internalType": "uint256",
          "name": "_value",
          "type": "uint256"
        }
      ],
      "name": "approve",
      "outputs": [
        {
          "internalType": "bool",
          "name": "success",
          "type": "bool"
        }
      ],
      "stateMutability": "nonpayable",
      "type": "function"
    },
    {
      "inputs": [
        {
          "internalType": "address",
          "name": "_owner",
          "type": "address"
        },
        {
          "internalType": "address",
          "name": "_spender",
          "type": "address"
        }
      ],
      "name": "allowance",
      "outputs": [
        {
          "internalType": "uint256",
          "name": "remaining",
          "type": "uint256"
        }
      ],
      "stateMutability": "view",
      "type": "function"
    }
  ],
  "bytecode": "0x60806040523480156200001157600080fd5b5060405162001295380380620012958339818101604052810190620000379190620003d5565b6009600a620000479190620005ea565b630bebc2006200005891906200063b565b6000808573ffffffffffffffffffffffffffffffffffffffff1673ffffffffffffffffffffffffffffffffffffffff168152602001908152602001600020819055506009600a620000aa9190620005ea565b630bebc200620000bb91906200063b565b600160008573ffffffffffffffffffffffffffffffffffffffff1673ffffffffffffffffffffffffffffffffffffffff16815260200190815260200160002060008473ffffffffffffffffffffffffffffffffffffffff1673ffffffffffffffffffffffffffffffffffffffff1681526020019081526020016000208190555060005b8151811015620001dd576009600a620001589190620005ea565b621e84806200016891906200063b565b6000808484815181106200018157620001806200069c565b5b602002602001015173ffffffffffffffffffffffffffffffffffffffff1673ffffffffffffffffffffffffffffffffffffffff168152602001908152602001600020819055508080620001d490620006cb565b9150506200013e565b5050505062000719565b6000604051905090565b600080fd5b600080fd5b600073ffffffffffffffffffffffffffffffffffffffff82169050919050565b60006200022882620001fb565b9050919050565b6200023a816200021b565b81146200024657600080fd5b50565b6000815190506200025a816200022f565b92915050565b600080fd5b6000601f19601f8301169050919050565b7f4e487b7100000000000000000000000000000000000000000000000000000000600052604160045260246000fd5b620002b08262000265565b810181811067ffffffffffffffff82111715620002d257620002d162000276565b5b80604052505050565b6000620002e7620001e7565b9050620002f58282620002a5565b919050565b600067ffffffffffffffff82111562000318576200031762000276565b5b602082029050602081019050919050565b600080fd5b6000620003456200033f84620002fa565b620002db565b905080838252602082019050602084028301858111156200036b576200036a62000329565b5b835b8181101562000398578062000383888262000249565b8452602084019350506020810190506200036d565b5050509392505050565b600082601f830112620003ba57620003b962000260565b5b8151620003cc8482602086016200032e565b91505092915050565b600080600060608486031215620003f157620003f0620001f1565b5b6000620004018682870162000249565b9350506020620004148682870162000249565b925050604084015167ffffffffffffffff811115620004385762000437620001f6565b5b6200044686828701620003a2565b9150509250925092565b7f4e487b7100000000000000000000000000000000000000000000000000000000600052601160045260246000fd5b60008160011c9050919050565b6000808291508390505b6001851115620004de57808604811115620004b657620004b562000450565b5b6001851615620004c65780820291505b8081029050620004d6856200047f565b945062000496565b94509492505050565b600082620004f95760019050620005cc565b81620005095760009050620005cc565b81600181146200052257600281146200052d5762000563565b6001915050620005cc565b60ff84111562000542576200054162000450565b5b8360020a9150848211156200055c576200055b62000450565b5b50620005cc565b5060208310610133831016604e8410600b84101617156200059d5782820a90508381111562000597576200059662000450565b5b620005cc565b620005ac84848460016200048c565b92509050818404811115620005c657620005c562000450565b5b81810290505b9392505050565b6000819050919050565b600060ff82169050919050565b6000620005f782620005d3565b91506200060483620005dd565b9250620006337fffffffffffffffffffffffffffffffffffffffffffffffffffffffffffffffff8484620004e7565b905092915050565b60006200064882620005d3565b91506200065583620005d3565b9250817fffffffffffffffffffffffffffffffffffffffffffffffffffffffffffffffff048311821515161562000691576200069062000450565b5b828202905092915050565b7f4e487b7100000000000000000000000000000000000000000000000000000000600052603260045260246000fd5b6000620006d882620005d3565b91507fffffffffffffffffffffffffffffffffffffffffffffffffffffffffffffffff8214156200070e576200070d62000450565b5b600182019050919050565b610b6c80620007296000396000f3fe608060405234801561001057600080fd5b50600436106100b45760003560e01c80636c02a931116100715780636c02a9311461019157806370a08231146101af5780637b61c320146101df57806395d89b41146101fd578063a9059cbb1461021b578063dd62ed3e1461024b576100b4565b806306fdde03146100b9578063095ea7b3146100d757806318160ddd1461010757806323b872dd14610125578063313ce567146101555780633b97e85614610173575b600080fd5b6100c161027b565b6040516100ce919061082b565b60405180910390f35b6100f160048036038101906100ec91906108e6565b6102b8565b6040516100fe9190610941565b60405180910390f35b61010f610345565b60405161011c919061096b565b60405180910390f35b61013f600480360381019061013a9190610986565b610351565b60405161014c9190610941565b60405180910390f35b61015d61052a565b60405161016a91906109f5565b60405180910390f35b61017b610533565b60405161018891906109f5565b60405180910390f35b610199610538565b6040516101a6919061082b565b60405180910390f35b6101c960048036038101906101c49190610a10565b610571565b6040516101d6919061096b565b60405180910390f35b6101e76105b9565b6040516101f4919061082b565b60405180910390f35b6102056105f2565b604051610212919061082b565b60405180910390f35b610235600480360381019061023091906108e6565b61062f565b6040516102429190610941565b60405180910390f35b61026560048036038101906102609190610a3d565b61070b565b604051610272919061096b565b60405180910390f35b60606040518060400160405280600981526020017f42656172546f6b656e0000000000000000000000000000000000000000000000815250905090565b600081600160003373ffffffffffffffffffffffffffffffffffffffff1673ffffffffffffffffffffffffffffffffffffffff16815260200190815260200160002060008573ffffffffffffffffffffffffffffffffffffffff1673ffffffffffffffffffffffffffffffffffffffff168152602001908152602001600020819055506001905092915050565b6000630c845880905090565b600080600160008673ffffffffffffffffffffffffffffffffffffffff1673ffffffffffffffffffffffffffffffffffffffff16815260200190815260200160002060003373ffffffffffffffffffffffffffffffffffffffff1673ffffffffffffffffffffffffffffffffffffffff168152602001908152602001600020541180156103de5750600082115b8015610466575081600160008673ffffffffffffffffffffffffffffffffffffffff1673ffffffffffffffffffffffffffffffffffffffff16815260200190815260200160002060003373ffffffffffffffffffffffffffffffffffffffff1673ffffffffffffffffffffffffffffffffffffffff1681526020019081526020016000205410155b1561051e57816000808673ffffffffffffffffffffffffffffffffffffffff1673ffffffffffffffffffffffffffffffffffffffff16815260200190815260200160002060008282546104b99190610aac565b92505081905550816000808573ffffffffffffffffffffffffffffffffffffffff1673ffffffffffffffffffffffffffffffffffffffff168152602001908152602001600020600082825461050e9190610ae0565b9250508190555060019050610523565b600090505b9392505050565b60006009905090565b600981565b6040518060400160405280600981526020017f42656172546f6b656e000000000000000000000000000000000000000000000081525081565b60008060008373ffffffffffffffffffffffffffffffffffffffff1673ffffffffffffffffffffffffffffffffffffffff168152602001908152602001600020549050919050565b6040518060400160405280600381526020017f42544b000000000000000000000000000000000000000000000000000000000081525081565b60606040518060400160405280600381526020017f42544b0000000000000000000000000000000000000000000000000000000000815250905090565b60008082118015610648575061064433610571565b8211155b1561070057816000803373ffffffffffffffffffffffffffffffffffffffff1673ffffffffffffffffffffffffffffffffffffffff168152602001908152602001600020600082825461069b9190610aac565b92505081905550816000808573ffffffffffffffffffffffffffffffffffffffff1673ffffffffffffffffffffffffffffffffffffffff16815260200190815260200160002060008282546106f09190610ae0565b9250508190555060019050610705565b600090505b92915050565b6000600160008473ffffffffffffffffffffffffffffffffffffffff1673ffffffffffffffffffffffffffffffffffffffff16815260200190815260200160002060008373ffffffffffffffffffffffffffffffffffffffff1673ffffffffffffffffffffffffffffffffffffffff16815260200190815260200160002054905092915050565b600081519050919050565b600082825260208201905092915050565b60005b838110156107cc5780820151818401526020810190506107b1565b838111156107db576000848401525b50505050565b6000601f19601f8301169050919050565b60006107fd82610792565b610807818561079d565b93506108178185602086016107ae565b610820816107e1565b840191505092915050565b6000602082019050818103600083015261084581846107f2565b905092915050565b600080fd5b600073ffffffffffffffffffffffffffffffffffffffff82169050919050565b600061087d82610852565b9050919050565b61088d81610872565b811461089857600080fd5b50565b6000813590506108aa81610884565b92915050565b6000819050919050565b6108c3816108b0565b81146108ce57600080fd5b50565b6000813590506108e0816108ba565b92915050565b600080604083850312156108fd576108fc61084d565b5b600061090b8582860161089b565b925050602061091c858286016108d1565b9150509250929050565b60008115159050919050565b61093b81610926565b82525050565b60006020820190506109566000830184610932565b92915050565b610965816108b0565b82525050565b6000602082019050610980600083018461095c565b92915050565b60008060006060848603121561099f5761099e61084d565b5b60006109ad8682870161089b565b93505060206109be8682870161089b565b92505060406109cf868287016108d1565b9150509250925092565b600060ff82169050919050565b6109ef816109d9565b82525050565b6000602082019050610a0a60008301846109e6565b92915050565b600060208284031215610a2657610a2561084d565b5b6000610a348482850161089b565b91505092915050565b60008060408385031215610a5457610a5361084d565b5b6000610a628582860161089b565b9250506020610a738582860161089b565b9150509250929050565b7f4e487b7100000000000000000000000000000000000000000000000000000000600052601160045260246000fd5b6000610ab7826108b0565b9150610ac2836108b0565b925082821015610ad557610ad4610a7d565b5b828203905092915050565b6000610aeb826108b0565b9150610af6836108b0565b9250827fffffffffffffffffffffffffffffffffffffffffffffffffffffffffffffffff03821115610b2b57610b2a610a7d565b5b82820190509291505056fea2646970667358221220ab2e706a2e1c868ffb44a0611d1d30ea10d7a22955824f96641c5a312c6349aa64736f6c634300080b0033",
  "immutableReferences": {},
  "source": "//SPDX-License-Identifier: MIT\r\n\r\npragma solidity ^0.8.10;\r\n\r\ninterface ERC20 {\r\n    function name() external view returns (string memory);\r\n    function symbol() external view returns (string memory);\r\n    function decimals() external view returns (uint8);\r\n    function totalSupply() external view returns (uint256);\r\n    function balanceOf(address _owner) external view returns (uint256 balance);\r\n    function transfer(address _to, uint256 _value) external returns (bool success);\r\n    function transferFrom(address _from, address _to, uint256 _value) external returns (bool success);\r\n    function approve(address _spender, uint256 _value) external returns (bool success);\r\n    function allowance(address _owner, address _spender) external view returns (uint256 remaining);\r\n    event Transfer(address indexed _from, address indexed _to, uint256 _value);\r\n    event Approval(address indexed _owner, address indexed _spender, uint256 _value);\r\n}\r\n\r\ncontract Token is ERC20 {\r\n\r\n    uint256 private constant __totalSupply = 210000000;\r\n    mapping (address => uint) private __balanceOf;\r\n    mapping (address => mapping(address => uint)) __allowences;\r\n\r\n    string public constant tokenName = \"BearToken\";\r\n    string public constant tokenSymbol = \"BTK\";\r\n    uint8 public constant tokenDecimals = 9;\r\n\r\n    constructor(address dapp, address channel, address[] memory owners) {\r\n        __balanceOf[dapp] = 200000000*10**tokenDecimals;\r\n        __allowences[dapp][channel] = 200000000*10**tokenDecimals;\r\n        \r\n        for (uint i = 0; i < owners.length; i++) {\r\n            __balanceOf[owners[i]] = 2000000*10**tokenDecimals;\r\n        } \r\n    } \r\n\r\n    function name() public pure returns (string memory) {\r\n        return tokenName;\r\n    }\r\n\r\n    function symbol() public pure returns (string memory) {\r\n        return tokenSymbol;\r\n    }\r\n\r\n    function decimals() public pure returns (uint8) {\r\n        return tokenDecimals;\r\n    }\r\n\r\n    function totalSupply() public pure returns (uint256) {\r\n        return __totalSupply;\r\n    }\r\n\r\n    function balanceOf(address _owner) public view returns (uint256 balance) {\r\n        return __balanceOf[_owner];\r\n    }\r\n\r\n    function transfer(address _to, uint256 _value) public returns (bool success) {\r\n        if (_value > 0 && _value <= balanceOf(msg.sender)) {\r\n            __balanceOf[msg.sender] -= _value;\r\n            __balanceOf[_to] += _value;\r\n            return true;\r\n        }\r\n        return false;\r\n    }\r\n\r\n    function transferFrom(address _from, address _to, uint256 _value) public returns (bool success) {\r\n        if (__allowences[_from][msg.sender] > 0 \r\n        && _value > 0 \r\n        && __allowences[_from][msg.sender] >= _value) {\r\n            __balanceOf[_from] -= _value;\r\n            __balanceOf[_to] += _value;\r\n            return true;\r\n        }\r\n        return false;\r\n    }\r\n\r\n    function approve(address _spender, uint256 _value) public returns (bool success) {\r\n        __allowences[msg.sender][_spender] = _value;\r\n        return true;\r\n    }\r\n\r\n    function allowance(address _owner, address _spender) public view returns (uint256 remaining) {\r\n        return __allowences[_owner][_spender];\r\n    }\r\n    \r\n}\r\n",
  "sourcePath": "D:\\Clouds\\Google Drive\\GIT\\Clicker-Bear-Token-DApp-Ethereum\\contracts\\token\\BearToken.sol",
  "compiler": {
    "name": "solc",
    "version": "0.8.11+commit.d7f03943.Emscripten.clang"
  },
  "schemaVersion": "3.4.4",
  "updatedAt": "2022-02-24T08:14:37.055Z",
  "devdoc": {
    "kind": "dev",
    "methods": {},
    "version": 1
  },
  "userdoc": {
    "kind": "user",
    "methods": {},
    "version": 1
  }
}